:020000040800F2
:10000000000002207DAD0108E9A90008CDAD01087E
:10001000CDAD0108CDAD0108CDAD01080000000057
:10002000000000000000000000000000CDAD01084D
:10003000CDAD010800000000CDAD01081954010844
:10004000CDAD0108CDAD0108CDAD0108CDAD0108A4
:10005000000000000DAA0008CDAD0108CDAD0108DB
:10006000CDAD0108CDAD0108CDAD0108CDAD010884
:10007000CDAD0108CDAD010811840108058401084A
:10008000CDAD0108ED260108CDAD0108CDAD0108CB
:1000900079460108CDAD0108CDAD0108CDAD01080F
:1000A000CDAD0108CDAD0108CDAD0108CDAD010844
:1000B0004D3D0108CDAD01085DD30008CDAD01086F
:1000C000CDAD0108CDAD0108CDAD0108CDAD010824
:1000D000CDAD0108CDAD0108CDAD0108CDAD010814
:1000E000CDAD0108CDAD0108CDAD0108CDAD010804
:1000F000CDAD0108CDAD010809D30008CDAD010893
:10010000CDAD0108CDAD0108B5D20008CDAD0108D7
:100110001D270108D13C0108CDAD0108CDAD010876
:10012000CDAD0108CDAD0108CDAD0108CDAD0108C3
:10013000CDAD0108CDAD0108CDAD0108CDAD0108B3
:10014000CDAD0108CDAD0108CDAD0108CDAD0108A3
:10015000CDAD0108CDAD0108BD260108CDAD01082A
:10016000CDAD0108CDAD0108CDAD0108CDAD010883
:10017000CDAD0108CDAD0108CDAD0108CDAD010873
:08018000CDAD0108CDAD010871
:1001900010B5054C237833B9044B13B10448AFF3C1
:1001A00000800123237010BDF8050020000000002E
:1001B000ACF1010808B5034B1BB103490348AFF389
:1001C000008008BD00000000FC050020ACF1010823
:1001D00001F0FF01102A2BDB10F0070F08D010F8F8
:1001E000013B013A8B422DD010F0070F42B3F6D1FC
:1001F000F0B441EA012141EA014122F007047FF015
:1002000000070023F0E80256083C85EA010586EA6B
:10021000010685FA47F5A3FA87F586FA47F6A5FAA7
:1002200087F68EB9EED1F0BC01F0FF0102F00702B3
:1002300032B110F8013B013A83EA010313B1F8D15E
:100240000020704701387047002D06BF354603383F
:10025000073815F0010F07D1013015F4807F02BF78
:10026000013015F4C03F0130F0BC0138704700BFC9
:10027000034613F8012B002AFBD1181A01387047E6
:1002800081F0004102E000BF83F0004330B54FEA47
:1002900041044FEA430594EA050F08BF90EA020FB4
:1002A0001FBF54EA000C55EA020C7FEA645C7FEA47
:1002B000655C00F0E2804FEA5454D4EB5555B8BF6A
:1002C0006D420CDD2C4480EA020281EA030382EADB
:1002D000000083EA010180EA020281EA0303362D6D
:1002E00088BF30BD11F0004F4FEA01314FF4801C40
:1002F0004CEA113102D0404261EB410113F0004F52
:100300004FEA03334CEA133302D0524263EB430308
:1003100094EA050F00F0A780A4F10104D5F1200EA6
:100320000DDB02FA0EFC22FA05F2801841F1000101
:1003300003FA0EF2801843FA05F359410EE0A5F1D5
:1003400020050EF1200E012A03FA0EFC28BF4CF006
:10035000020C43FA05F3C01851EBE37101F00045BC
:1003600007D54FF0000EDCF1000C7EEB00006EEBC9
:100370000101B1F5801F1BD3B1F5001F0CD3490853
:100380005FEA30004FEA3C0C04F101044FEA4452AA
:1003900012F5800F80F09A80BCF1004F08BF5FEA31
:1003A000500C50F1000041EB045141EA050130BD11
:1003B0005FEA4C0C404141EB0101013C28BFB1F523
:1003C000801FE9D291F0000F04BF01460020B1FA6E
:1003D00081F308BF2033A3F10B03B3F120020CDA41
:1003E0000C3208DD02F1140CC2F10C0201FA0CF01F
:1003F00021FA02F10CE002F11402D8BFC2F1200C84
:1004000001FA02F120FA0CFCDCBF41EA0C01904039
:10041000E41AA2BF01EB0451294330BD6FEA040482
:100420001F3C1CDA0C340EDC04F11404C4F120026D
:1004300020FA04F001FA02F340EA030021FA04F37F
:1004400045EA030130BDC4F10C04C4F1200220FAD6
:1004500002F001FA04F340EA0300294630BD21FA14
:1004600004F0294630BD94F0000F83F4801306BFDA
:1004700081F480110134013D4EE77FEA645C18BFCE
:100480007FEA655C29D094EA050F08BF90EA020F65
:1004900005D054EA000C04BF1946104630BD91EA5D
:1004A000030F1EBF0021002030BD5FEA545C05D160
:1004B0004000494128BF41F0004130BD14F580049F
:1004C0003CBF01F5801130BD01F0004545F0FE4113
:1004D00041F470014FF0000030BD7FEA645C1ABF48
:1004E000194610467FEA655C1CBF0B46024650EA7F
:1004F000013406BF52EA033591EA030F41F40021AB
:1005000030BD00BF90F0000F04BF0021704730B530
:100510004FF4806404F132044FF000054FF0000105
:1005200050E700BF90F0000F04BF0021704730B5C6
:100530004FF4806404F1320410F0004548BF40429B
:100540004FF000013EE700BF42004FEAE2014FEAF0
:1005500031014FEA02701FBF12F07F4393F07F4FCB
:1005600081F06051704732F07F4208BF704793F0CE
:100570007F4F04BF41F40021704730B54FF46074E1
:1005800001F0004521F000411CE700BF50EA0102E4
:1005900008BF704730B54FF000050AE050EA01028D
:1005A00008BF704730B511F0004502D5404261EBFD
:1005B00041014FF4806404F132045FEA915C3FF43E
:1005C000D8AE4FF003025FEADC0C18BF03325FEADB
:1005D000DC0C18BF033202EBDC02C2F1200300FA8C
:1005E00003FC20FA02F001FA03FE40EA0E0021FAB1
:1005F00002F11444BDE600BF70B54FF0FF0C4CF49F
:10060000E06C1CEA11541DBF1CEA135594EA0C0F50
:1006100095EA0C0F00F0DEF82C4481EA030621EA8B
:100620004C5123EA4C5350EA013518BF52EA0335C6
:1006300041F4801143F4801338D0A0FB02CE4FF078
:100640000005E1FB02E506F00042E0FB03E54FF0A8
:100650000006E1FB03569CF0000F18BF4EF0010EA0
:10066000A4F1FF04B6F5007F64F5407404D25FEA9C
:100670004E0E6D4146EB060642EAC62141EA55514F
:100680004FEAC52040EA5E504FEACE2EB4F1FD0C91
:1006900088BFBCF5E06F1ED8BEF1004F08BF5FEA0F
:1006A000500E50F1000041EB045170BD06F00046C1
:1006B00046EA010140EA020081EA0301B4EB5C046E
:1006C000C2BFD4EB0C0541EA045170BD41F4801166
:1006D0004FF0000E013C00F3AB8014F1360FDEBF8B
:1006E000002001F0004170BDC4F10004203C35DA67
:1006F0000C341BDC04F11404C4F1200500FA05F3EA
:1007000020FA04F001FA05F240EA020001F000428A
:1007100021F0004110EBD37021FA04F642EB060100
:100720005EEA430E08BF20EAD37070BDC4F10C042A
:10073000C4F1200500FA04F320FA05F001FA04F2EE
:1007400040EA020001F0004110EBD37041F10001DA
:100750005EEA430E08BF20EAD37070BDC4F12005E5
:1007600000FA05F24EEA020E20FA04F301FA05F24D
:1007700043EA020321FA04F001F0004121FA04F2F5
:1007800020EA020000EBD3705EEA430E08BF20EAC5
:10079000D37070BD94F0000F0FD101F000464000FF
:1007A00041EB010111F4801F08BF013CF7D041EA81
:1007B000060195F0000F18BF704703F00046520085
:1007C00043EB030313F4801F08BF013DF7D043EA56
:1007D0000603704794EA0C0F0CEA135518BF95EA0C
:1007E0000C0F0CD050EA410618BF52EA4306D1D193
:1007F00081EA030101F000414FF0000070BD50EAB2
:10080000410606BF1046194652EA430619D094EA3B
:100810000C0F02D150EA013613D195EA0C0F05D125
:1008200052EA03361CBF104619460AD181EA030179
:1008300001F0004141F0FE4141F470014FF0000031
:1008400070BD41F0FE4141F4780170BD70B54FF0CC
:10085000FF0C4CF4E06C1CEA11541DBF1CEA13554C
:1008600094EA0C0F95EA0C0F00F0A7F8A4EB05042E
:1008700081EA030E52EA03354FEA013100F0888025
:100880004FEA03334FF0805545EA131343EA1263EE
:100890004FEA022245EA111545EA10654FEA0026A3
:1008A0000EF000419D4208BF964244F1FD0404F55C
:1008B000407402D25B084FEA3202B61A65EB0305B8
:1008C0005B084FEA32024FF480104FF4002CB6EB75
:1008D000020E75EB030E22BFB61A754640EA0C00F5
:1008E0005B084FEA3202B6EB020E75EB030E22BF35
:1008F000B61A754640EA5C005B084FEA3202B6EB76
:10090000020E75EB030E22BFB61A754640EA9C0034
:100910005B084FEA3202B6EB020E75EB030E22BF04
:10092000B61A754640EADC0055EA060E18D04FEAC2
:10093000051545EA16754FEA06164FEAC30343EA62
:1009400052734FEAC2025FEA1C1CC0D111F4801F2F
:100950000BD141EA00014FF000004FF0004CB6E728
:1009600011F4801F04BF01430020B4F1FD0C88BFC7
:10097000BCF5E06F3FF6AFAEB5EB030C04BFB6EBD2
:10098000020C5FEA500C50F1000041EB045170BDC5
:100990000EF0004E4EEA113114EB5C04C2BFD4EBF2
:1009A0000C0541EA045170BD41F480114FF0000E76
:1009B000013C90E645EA060E8DE60CEA135594EAF2
:1009C0000C0F08BF95EA0C0F3FF43BAF94EA0C0FF5
:1009D0000AD150EA01347FF434AF95EA0C0F7FF46A
:1009E00025AF104619462CE795EA0C0F06D152EABE
:1009F00003353FF4FDAE1046194622E750EA4106A2
:100A000018BF52EA43067FF4C5AE50EA41047FF4B2
:100A10000DAF52EA43057FF4EBAE12E74FF0FF3C17
:100A200006E000BF4FF0010C02E000BF4FF0010CE8
:100A30004DF804CD4FEA410C7FEA6C5C4FEA430C61
:100A400018BF7FEA6C5C1BD001B050EA410C0CBFB0
:100A500052EA430C91EA030F02BF90EA020F002012
:100A6000704710F1000F91EA030F58BF994208BF79
:100A700090422CBFD8176FEAE37040F00100704736
:100A80004FEA410C7FEA6C5C02D150EA013C07D18D
:100A90004FEA430C7FEA6C5CD6D152EA033CD3D0D8
:100AA0005DF8040B704700BF8446104662468C46D2
:100AB0001946634600E000BF01B5FFF7B7FF002805
:100AC00048BF10F1000F01BD4DF808EDFFF7F4FF2E
:100AD0000CBF012000205DF808FB00BF4DF808EDB9
:100AE000FFF7EAFF34BF012000205DF808FB00BFDC
:100AF0004DF808EDFFF7E0FF94BF012000205DF8FE
:100B000008FB00BF4DF808EDFFF7CEFF94BF0120B2
:100B100000205DF808FB00BF4DF808EDFFF7C4FFAB
:100B200034BF012000205DF808FB00BF4FEA410CF4
:100B30007FEA6C5C02D150EA013C0AD14FEA430CD7
:100B40007FEA6C5C02D152EA033C02D14FF0000014
:100B500070474FF0010070474FEA410212F5001252
:100B600015D211D56FF47873B3EB625212D94FEAF4
:100B7000C12343F0004343EA505311F0004F23FADE
:100B800002F018BF404270474FF00000704750EA33
:100B9000013005D111F0004008BF6FF000407047F0
:100BA0004FF00000704700BF80F0004002E000BF3F
:100BB00081F0004142001FBF5FEA410392EA030F48
:100BC0007FEA226C7FEA236C6AD04FEA1262D2EB92
:100BD0001363C1BFD218414048404140B8BF5B4297
:100BE000192B88BF704710F0004F40F4000020F030
:100BF0007F4018BF404211F0004F41F4000121F046
:100C00007F4118BF494292EA030F3FD0A2F101028F
:100C100041FA03FC10EB0C00C3F1200301FA03F1CD
:100C200000F0004302D5494260EB4000B0F5000FF0
:100C300013D3B0F1807F06D340084FEA310102F1AF
:100C40000102FE2A51D2B1F1004F40EBC25008BF61
:100C500020F0010040EA03007047490040EB00002B
:100C6000013A28BFB0F5000FEDD2B0FA80FCACF12C
:100C7000080CB2EB0C0200FA0CF0AABF00EBC25059
:100C800052421843BCBFD0401843704792F0000F47
:100C900081F4000106BF80F400000132013BB5E79A
:100CA0004FEA41037FEA226C18BF7FEA236C21D010
:100CB00092EA030F04D092F0000F08BF0846704775
:100CC00090EA010F1CBF0020704712F07F4F04D143
:100CD000400028BF40F00040704712F100723CBF56
:100CE00000F50000704700F0004343F0FE4040F480
:100CF000000070477FEA226216BF08467FEA23633E
:100D00000146420206BF5FEA412390EA010F40F428
:100D1000800070474FF0000304E000BF10F0004374
:100D200048BF40425FEA000C08BF704743F096435B
:100D300001464FF000001CE050EA010208BF704776
:100D40004FF000030AE000BF50EA010208BF7047FD
:100D500011F0004302D5404261EB41015FEA010C12
:100D600002BF84460146002043F0B64308BFA3F10A
:100D70008053A3F50003BCFA8CF2083AA3EBC253EC
:100D800010DB01FA02FC634400FA02FCC2F120020B
:100D9000BCF1004F20FA02F243EB020008BF20F042
:100DA0000100704702F1200201FA02FCC2F12002A8
:100DB00050EA4C0021FA02F243EB020008BF20EA9D
:100DC000DC7070477BB972B90029BEBF00204FF0BC
:100DD000004106E008BF00281CBF6FF000414FF043
:100DE000FF3000F0EFB9ADF1080C6DE904CE002939
:100DF00009DB002B1ADB00F069F8DDF804E0DDE91F
:100E0000022304B07047404261EB4101002B1BDB21
:100E100000F05CF8DDF804E0DDE9022304B04042B4
:100E200061EB4101524263EB43037047524263EB73
:100E3000430300F04BF8DDF804E0DDE9022304B0E1
:100E4000404261EB41017047524263EB430300F0C3
:100E50003DF8DDF804E0DDE9022304B0524263EB23
:100E60004303704707EE900AF5EEC07AF1EE10FAF0
:100E700001D400F00BB8F1EE677A08B517EE900ACE
:100E800000F004F8404261EB410108BDD0B5FFF726
:100E90005BFB0C4B002206460F46FFF7ADFB00F054
:100EA00093F90446FFF72EFB074B0022FFF7A4FB44
:100EB00002460B4630463946FFF7E6F900F084F962
:100EC0002146D0BD0000F03D0000F0412DE9F04783
:100ED000089D8E4604468846002B4AD18A42174612
:100EE00062D9B2FA82F64EB1C6F1200301FA06F8D1
:100EF00020FA03F3B74043EA0808B4404FEA174E1C
:100F00001FFA87FCB8FBFEF1230C0EFB118843EAA5
:100F1000084301FB0CF29A4209D9FB1801F1FF309A
:100F200080F0EA809A4240F2E78002393B449A1A04
:100F3000A3B2B2FBFEF00EFB102243EA024300FB19
:100F40000CFC9C4509D9FB1800F1FF3280F0D680DB
:100F50009C4540F2D3803B44023840EA0140A3EB79
:100F60000C0300211DB1F3400022C5E90032BDE8A9
:100F7000F0878B4205D90DB1C5E900010021084673
:100F8000F5E7B3FA83F1002946D1734502D38242D3
:100F900000F20581841A6EEB030201209046002DB9
:100FA000E5D0C5E90048E2E7002A00F09080B2FAF7
:100FB00082F6002E40F0A4808A1A030C4FEA174EE6
:100FC00080B2BCB20121B2FBFEFC0EFB1C2243EA44
:100FD000024304FB0CF29A4207D9FB180CF1FF38CC
:100FE00002D29A4200F2E080C4469B1AB3FBFEF2A2
:100FF0000EFB123340EA034302FB04F49C4207D980
:10100000FB1802F1FF3002D29C4200F2CA80024675
:101010001B1B42EA0C40A5E7C1F120068B4022FAD7
:1010200006F71F430EFA01F420FA06F32EFA06FE25
:101030004FEA1749234300FA01F81FFA87FCBEFB69
:10104000F9F01C0C09FB10EE44EA0E4400FB0CFE08
:10105000A64502FA01F209D93C1900F1FF3A80F0E5
:101060009C80A64540F2998002383C44A4EB0E04D3
:101070001FFA83FEB4FBF9F309FB13444EEA044460
:1010800003FB0CFCA44508D93C1903F1FF3E80F09A
:101090008280A4457FD9023B3C4443EA0040A4EB54
:1010A0000C04A0FB02EC64457346E14662D35FD0BA
:1010B0005DB1B8EB030264EB090404FA06F622FA08
:1010C00001F31E43CC40C5E9006400214FE7B1FBAA
:1010D000F2FC010C41EA0E4180B240EA01423B467B
:1010E00038463C46B846BE462026B1FBF7F1A2EB97
:1010F000080241EA0C4166E7014618E710462CE772
:10110000C6F120022EFA02F3B740B14020FA02F2F3
:101110004FEA174E0A43B3FBFEF8BCB20EFB18337E
:10112000110C41EA034108FB04F9B04089454FEA3C
:10113000104380B23ED9791808F1FF3C01D28945AD
:101140001FD8A1EB0901B1FBFEF909FB04F80EFB66
:10115000191192B242EA0142424529D2BA1809F164
:10116000FF31C4D24245C2D2A9F102013A44BEE7DE
:10117000F0459DD2BEEB02036CEB070C0138E14653
:1011800096E7A7EB09094944A8F1020CB1FBFEF967
:1011900009FB04F8DBE773467FE7504666E708463D
:1011A000FDE63B44023A33E7ACF1020C3B441CE75A
:1011B00049469CE7A1EB0901C446B1FBFEF909FBD6
:1011C00004F8C4E7704700BF4A0011D212F50012BC
:1011D00011D20DD56FF47873B3EB62520ED44FEA8F
:1011E000C12343F0004343EA505323FA02F070470F
:1011F0004FF00000704750EA013002D14FF0FF304D
:1012000070474FF000007047014B1B68187870471B
:1012100018060020024B1B6801229A70704700BF1D
:1012200018060020014B1B689878704718060020AC
:10123000024B1B6807221A70704700BF1806002077
:1012400010B509F031FBC3689B68BDE810405B68CE
:10125000184710B509F028FBC368BDE810405B696A
:10126000184710B509F020FBC368BDE810409B6922
:101270001847000010B5074B1C682378062B07D1D0
:1012800003F0A6FE036A9847052804BF10232370C5
:1012900010BD00BF1806002010B503F099FE83684A
:1012A000BDE81040DB6A184708B503F091FE83687B
:1012B0005B6A9847C31E5842584108BD10B50446A2
:1012C00003F086FE83682046DB69BDE810401847BE
:1012D00010B503F07DFE8368BDE810409B68184799
:1012E00010B503F075FE8368BDE810405B691847D0
:1012F00010B503F06DFE8368BDE810401B69184708
:1013000010B503F065FE8368BDE810409B6C18477C
:1013100008B52DED028BB0EE408A03F059FE8368CC
:1013200083ED008ABDEC028B08BD10B503F050FEC2
:101330004368BDE81040DB6A184710B503F048FE6B
:101340004368BDE810409B68184710B503F040FEA5
:101350004368BDE810405B69184710B503F038FEDC
:101360004368BDE810401B69184710B503F030FE14
:101370004368BDE810409B6C184710B503F028FE89
:101380000368BDE81040DB6A184710B503F020FE83
:101390000368BDE810409B68184710B503F018FEBD
:1013A0000368BDE810405B69184710B503F010FEF4
:1013B0000368BDE810401B69184710B503F008FE2C
:1013C0000368BDE810409B6C184710B503F000FEA1
:1013D000BDE81040436B184710B503F0F9FDBDE8B8
:1013E0001040C36A184710B52DED028BB0EE408A4D
:1013F00003F0EEFDB0EE480ABDEC028B036BBDE8D6
:101400001040184710B503F0E3FDBDE81040436AF3
:10141000184710B503F0DCFDBDE81040C36918475C
:1014200010B503F0D5FDBDE81040C368184710B5EE
:1014300003F0CEFDBDE810408369184710B503F0F6
:10144000C7FDBDE810400369184710B509F02CFA34
:10145000C46801F02DFD836898470B2801D1022054
:1014600010BD01F0C1F9836898474207F7D4A3681B
:101470005B6A9847431E58425841F1E710B509F09E
:1014800013FAC46801F014FD83689847072801D156
:10149000022010BD01F00CFD8368984706280CD08F
:1014A00001F0A2F9836898478207F1D463685B6A08
:1014B0009847431E58425841EBE70320E9E710B52F
:1014C00009F0F2F9C46801F0F3FC83689847092831
:1014D00001D1022010BD01F0EBFC83689847082879
:1014E0000CD001F081F983689847C207F1D42368D2
:1014F0005B6A9847431E58425841EBE70320E9E7EF
:10150000094B1B68012210B51A7001F06DF90368D0
:10151000984704F0C9FA0368984701F0C9FCBDE890
:1015200010400368184700BF18060020074B1B68CF
:10153000002210B51A7003F04BFD4369984701F083
:10154000B7FCBDE810400368184700BF180600202C
:1015500008B5FFF765FFBDE80840FFF7E7BF0000EB
:1015600007B58DED010A01A89FED050A09F0FEFF00
:1015700003F02EFD019A83685A6003B05DF804FB06
:101580000000484307B58DED010A01A89FED050A4B
:1015900009F0ECFF03F01CFD019A43685A6003B0A8
:1015A0005DF804FB0000484307B58DED010A01A872
:1015B0009FED050A09F0DAFF03F00AFD019A0368BE
:1015C0005A6003B05DF804FB0000484310B52DEDF0
:1015D000028BB0EE408A03F0FBFCB0EE480A9FEDB0
:1015E000061ADFED060A446809F066FFBDEC028BBF
:1015F00084ED000A10BD00BF00004842000048C250
:1016000010B52DED028BB0EE408A03F0E1FCB0EE98
:10161000480A9FED061ADFED060A046809F04CFF40
:10162000BDEC028B84ED000A10BD00BF00000C432E
:10163000000039C32DE9F0412DED028B09F034F99A
:101640009B4FC56809F030F93C6886682378102BF9
:1016500027D8DFE813F011002A00390045002600E2
:1016600026008A0052012600260065016501260039
:101670005F016501650165012B68DB6898476B6850
:10168000DB6806469847AB68DB68074698473E43E9
:10169000304380B2002814BF0323012323700023AA
:1016A0006370BDEC028BBDE8F0810123637001F033
:1016B0009BF8C36898470A2802D102232370F0E7F9
:1016C0000B28EED10D23F9E704F0EEF943689847B3
:1016D0000C2801D10323F1E70D28E2D10F23EDE718
:1016E00001F0E6FB43689847052838D1736B9F6883
:1016F00003F06EFC0568B84785ED000A03F068FC4E
:10170000036800255D60B36BD3F8088003F060FCCC
:101710004768C04787ED000A03F05AFC43685D60E4
:10172000F36B9F6803F054FC8668B84786ED000AA7
:1017300003F04EFC83685D606378012B0DD10025BA
:10174000657003F045FC83680220DB69984719F057
:1017500019FC436898472570A3E70623AEE70638CF
:10176000C0B205289DD80E23A8E709F09DF8C668E9
:1017700009F09AF83C68856809F096F8A378013B6F
:10178000062B8ED8DFE803F00419486E859AB7005F
:1017900009F08AF803685B6804F110001B68984739
:1017A0006B6B9B689847AB6B84ED020A9B6898470C
:1017B000022384ED030A638073E709F075F8036878
:1017C0005B6804F110009B689847B0F5FA6F02D986
:1017D0000323A37065E76B6B9B689847D4ED027A8F
:1017E000AB6B30EE678A9B689847DFED327A94EDF9
:1017F000037AB0EEC88AB4EEE78AF1EE10FA09DC9B
:1018000030EE470AB0EEC00AB4EEE70AF1EE10FA85
:101810007FF747AF0123DCE73368DFED278A9B6A58
:1018200098476B6B08EE100A9B689847B8EEC88A19
:10183000A0EE688ABCEEC88A18EE103AA3807368DE
:101840009B6A9847AB6B08EE100A9B689847B8EE06
:10185000C88AA0EE688ABCEEC88A18EE103AE38007
:101860000423B6E709F020F80569B4F904106B68A1
:10187000222098476B68B4F906102320984709F096
:1018800013F803685B6804F110001B689847052390
:101890009FE709F009F803685B6804F110009B6892
:1018A0009847B0F57A7FFFF4FCAE062391E700BFBE
:1018B00018060020CDCC4C3E610B364308F0F4FFF7
:1018C00006692220B3689847B368054623209847E5
:1018D000A388ADB2AB4203D1E38880B2834208D083
:1018E000E378092B8CBF082204220133A270E37035
:1018F000D7E607236DE700236BE708F099FA436802
:10190000984703287FF4CDAE19F03CFB4368984715
:101910000023D3E66B69BDEC028BBDE8F0411847AC
:101920002B69F8E7014B1868704700BF14060020C8
:101930002DE9F04108F0B8FF0368514F1C68514D84
:1019400008F0B2FF03680121D3F80880A3681420CF
:101950009847A3683860012154209847A3682860FD
:101960000646012138209847A368306001213820BD
:101970002E689847A3687060012138202E68984728
:10198000B06008F091FFC36900201B6898472B687E
:101990003D4ADA603D4A9A613D4A1A623D4A5A61BF
:1019A0003D4ADA613D4ADA633D4A1A633D4A1A61AB
:1019B0003D4ADA623D4A5A633D4A9A633D4A1A6497
:1019C0003D4A5A643D4ADA643D4A9A643D4A1A6582
:1019D0001A683D4951623D4911633D49D1623D4913
:1019E00091613D49D1613D4991603D4911603D4959
:1019F00051635A683C4951623C4911633C49D16288
:101A00003C4991613C49D1613C4991603C4911603C
:101A10009B683C4951633C4A5A623C4A1A633C4ABF
:101A2000DA623C4A9A613C4ADA613C4A9A603C4A32
:101A30001A613C4A5A613C4A5A603C4A1A603C4A24
:101A40005A6303F0CBFA3B6800245C7000F0D2FECE
:101A500000F0CAFE374B03613B689C7004F02AF823
:101A600001F02CFA08F0EAF9D8F80830324821469B
:101A7000984708F019FF8368304A1A63BDE8F0817F
:101A80001806002014060020091200083D14000862
:101A90002F140008211400082D1500081314000845
:101AA00001150008631200085312000815120008FF
:101AB000251200083112000805140008E713000879
:101AC000D9130008CB130008A91500080116000857
:101AD000BB130008AB1300089B1300088B1300080E
:101AE0007B130008BF14000885150008CD150008F9
:101AF0006B1300085B1300084B1300083B1300082E
:101B00002B1300087D14000861150008111300084C
:101B100001130008F1120008E1120008D1120008B8
:101B2000BD120008A912000841120008991200080D
:101B30004B140008511500083516000875120008EE
:101B4000014B1B685879704720060020024B1B6828
:101B500002221A70704700BF20060020014B1B684C
:101B600018787047200600202DE9F04F2DED028BEC
:101B700085B008F099FE0368A04C5D6808F094FEFB
:101B8000D0F8088008F090FE2668C76896F80090A4
:101B9000B9F1090F3BD8DFE819F00A000D002D005C
:101BA000400017029302BE05DF05EA05190601236E
:101BB00033702CE0D8F854309847D8F85030984714
:101BC000012824D13B68DB6898477B68DB680546C1
:101BD0009847BB68DB688146984745EA0905044693
:101BE0002C43D8F85830A4B29847002C40F0EB852D
:101BF0000223DDE7D8F854309847D8F8503098479A
:101C0000012804D1D8F8583098470323336030783E
:101C100005B0BDEC028BBDE8F08F08F045FE03680F
:101C20005F6808F041FED0F808A008F03DFE246887
:101C3000C56863780B2B00F2BF81DFE813F00C005E
:101C40001300550062009F00E7001701AF018A00F2
:101C5000B101B9018A003B6804F1140098470123DF
:101C6000637076E004F11408BB6840469847B0F50D
:101C70007A7F1FD207EE900AB8EEE78ADFED607A2E
:101C800028EE278A08F010FEC5682B68B0EE480AD7
:101C9000DB69002098476B68B0EE480ADB690020DA
:101CA0009847AB68B0EE480ADB6900209847EB68BC
:101CB00098474EE02B68D4F818909B6A98476B6859
:101CC000A9F802009B6AD4F81C909847AB68A9F861
:101CD00002009B6AD4F8209098473B68A9F802005C
:101CE000404698470223BBE704F11405BB68284629
:101CF0009847B0F57A7F2CD93B682846984703234C
:101D0000AEE72B689B6A98476B689B6A8146984749
:101D1000AB689B6A80469847D4E906C5BCF802E0E8
:101D20006988A9EB0E0EBEF1000F0346B8BFCEF1D5
:101D3000000E206ABEF1140F428810DDACF802904C
:101D4000A5F802804380022363703B6804F114000D
:101D500098476378082B40F03181042328E7A8EBEB
:101D600001010029B8BF49421429E7DC9A1A002A68
:101D7000B8BF5242142AE1DC0423E5E7A2692B68CC
:101D800050889B689847E2696B6850889B689847C1
:101D9000226AAB6850889B6898472B68D4F81880F3
:101DA0009B6A98476B68A8F802009B6AD4F81C806D
:101DB0009847AB68A8F802009B6AD4F8208098473F
:101DC000DAF83430A8F802009B68A5699847DAF879
:101DD000383085ED010A9B68E5699847DAF83C30B0
:101DE00085ED010A9B68256A98473B6885ED010AE5
:101DF00004F114009847052332E700BF20060020B5
:101E000017B7513ACDCC4C3F0000A04204F1140565
:101E1000BB6828469847B0F57A7F22D207EE900A31
:101E20001FED087AF8EEE77A67EE877AFDEEE77A3B
:101E300017EE905A08F038FDC7681FED0D0A3B6891
:101E40002846DB6998477B681FED110ADB69284645
:101E50009847BB681FED140ADB6928469847FB6862
:101E600026E73B68284698470623F9E608F01CFD5C
:101E70004368DB6801932B689B6A98476B689B6A91
:101E800081469847AB689B6A80469847A269538809
:101E9000E269A9EB03095388226A5288A0EB020B7E
:101EA000DAF838209268A8EB03089047E269D2ED8F
:101EB000017ADAF83C2030EE670A92688DED020A6A
:101EC0009047226AD2ED017A30EE670A02A88DEDC2
:101ED000030A09F08BF803A809F088F819F5004FF8
:101EE000B8BF09F5803918F5004FB8BF08F580383C
:101EF000A9F5FA791BF5004FB8BF0BF5803BB9F592
:101F00007A7F8ABF012200226271A8F5FA788ABF1F
:101F10000A2262716270B8F57A7F05D9627942F05F
:101F2000020262710A226270AA6812689047012850
:101F30000AD1ABF5FA70B0F57A7F05D9637943F031
:101F4000040363710A236370DDED027AF5EEC07A53
:101F5000F1EE10FA05D508F0A7FCC36901201B6853
:101F60009847AB681B6898470128054610D1DDEDFE
:101F7000037AF5EEC07AF1EE10FA09D508F094FC78
:101F8000C36928461B689847019BA0489B689847EF
:101F90006378062B7FF4D9AE0723D5E608235FE6E6
:101FA0009B4B1B689B690BB1607998470B2357E6E5
:101FB000974B1B685B69F6E76B6979E6093B022B77
:101FC0003FF625AE0B23F3E508F06EFC03685D6871
:101FD00008F06AFCD0F8088008F066FC2468C7683E
:101FE000A378012B0DD0022B3DD02BB92B6804F127
:101FF000140098470123A370A378032B5CD1052319
:10200000D6E5D8F838309B689847DFED827A60EEE5
:10201000677A4FF4FA71FDEEE77A03A8B0EE408AD2
:10202000CDED037A09F0B1FA7B689FED7B0A5B691D
:1020300003989847B0EEC88AF7EE007AB4EEE78AC4
:10204000F1EE10FA04F1140704D52B6838469847CE
:102050000223A370AB683846984741F28833984210
:10206000CAD90423C7E7D8F834309B689847DFED16
:10207000697A60EE677A4FF4FA71FDEEE77A03A8A9
:10208000B0EE408ACDED037A09F07FFA3B689FED10
:10209000620A5B6903989847B0EEC88AF7EE007A47
:1020A000B4EEE78AF1EE10FA04F11407D2D52B68EA
:1020B000384698470323CCE7042B7FF4A8AD81E78B
:1020C00008F0F2FB03685F6808F0EEFBC56808F0F3
:1020D000EBFB2468D0F81C80E3780F2B00F2218101
:1020E000DFE813F010002C004500A200EC002D01E9
:1020F000310149019601E1011B022A0242029002CC
:10210000DB021503AB689FED450ADB6900209847A9
:102110002B68A7695B6B98476B6887ED010A5B6B5F
:10212000E7699847AB6887ED010A5B6B276A9847B8
:10213000002387ED010A238101234CE03B6804F171
:1021400014009847228900230132C4E90333A371A4
:1021500093B212B2642A228101DD11233BE003EB2A
:1021600043035B0003F548736381022333E004F10A
:10217000140BBB6958469847A369D5F8009093EDB6
:10218000018AEB68824698476089D9F814309FED40
:10219000250A40429847224B9A451ED8D9F8343038
:1021A000984730EE480A03A88DED030A08F01EFF99
:1021B0009DED037AFFEE007AB4EEE77AF1EE10FAC5
:1021C00040F1AF80A379012B08BFC4F80CA03B6895
:1021D000584698470323E370A3E0D9F80C3098479A
:1021E000D8F8043005469847012807D0012305EBAD
:1021F0000310D9F8083080B298479DE7D9F8043029
:1022000098470128F2D14FF0FF33F0E7C8F10108F9
:102210001C06002000009643CCCC4C3F0000000080
:102220007F1A06003333733F04F1140BBB69584621
:102230009847A369D5F8009093ED018AEB68824630
:102240009847D9F814301FED090A60899847B84BB0
:102250009A451ED8D9F83430984730EE480A03A87A
:102260008DED030A08F0C2FE9DED037AF7EE007AC9
:10227000B4EEE77AF1EE10FA53DD3B685846984722
:10228000A37923B90123C4F810A0A3716DE7042337
:10229000A1E7D9F80C309847D8F80430054698479C
:1022A000012803D00123A5EB0310A2E7D9F80430DD
:1022B00098470128F6D14FF0FF33F4E7D4E9033211
:1022C000D5F800B09F1ADBF80C309847D8F80430E6
:1022D0008246984701282AD0012040F6B8320023D0
:1022E00087FB0001FEF76EFD2021039003A809F093
:1022F0004CF9039B0AEB03002B6880B29B6898475C
:1023000040F6B733FB184FEAE77241F26F7142F1C2
:1023100000028B4272F1000228BF4FF0010984F8DD
:102320000390E378102B40F0F481062340E4DBF8BF
:10233000043098470128CFD14FF0FF30CDE700237C
:102340002381062347E73B6804F11400984722895C
:1023500000230132C4E90333A37193B212B2642A99
:1023600022813FF7FAAE03EB43035B0003F54873AA
:10237000638107232FE704F1140BBB695846984784
:10238000E369D5F8049093ED018AEB68824698479B
:102390006089D9F814309FED670A40429847644B32
:1023A0009A451CD8D9F83430984730EE480A03A82B
:1023B0008DED030A08F01AFE9DED037AFFEE007A18
:1023C000B4EEE77AF1EE10FAABD5A379012B08BF92
:1023D000C4F80CA03B68584698470823FBE6D9F898
:1023E0000C309847D8F8043005469847012807D0A4
:1023F000012305EB0310D9F8083080B29847A0E715
:10240000D9F8043098470128F2D14FF0FF33F0E7B4
:1024100004F1140BBB6958469847E369D5F804905A
:1024200093ED018AEB6882469847D9F814309FED06
:10243000410A608998473E4B9A451FD8D9F83430F5
:10244000984730EE480A03A88DED030A08F0CEFD48
:102450009DED037AF7EE007AB4EEE77AF1EE10FA2A
:102460007FF75FAF3B6858469847A37923B90123AC
:10247000C4F810A0A3717CE70923ACE6D9F80C30AE
:102480009847D8F8043005469847012803D001231F
:10249000A5EB0310AFE7D9F8043098470128F6D12F
:1024A0004FF0FF33F4E7D4E90332D5F804A09F1AC4
:1024B000DAF80C309847D8F804308146984701285C
:1024C00023D001214FF47A62002387FB0101FEF73C
:1024D00079FC2021039003A809F057F8039B09EB2E
:1024E00003006B6880B29B68984740F69F73FB18A7
:1024F0004FEAE77241F63F7142F100028B4272F1FE
:102500000002BFF41EAF0A2365E6DAF804309847EC
:102510000128D6D14FF0FF31D4E7AB68276A5B6B57
:102520009847002387ED010A23810B2353E600BF60
:102530007F1A06003333733F3B6804F11400984759
:10254000228900230132C4E90333A37193B212B28A
:10255000642A22813FF701AE03EB43035B0003F5DE
:10256000487363810C2336E604F1140BBB695846AB
:102570009847236AD5F8089093ED018AEB68824664
:1025800098476089D9F814301FED160A40429847E1
:10259000924B9A451DD8D9F83430984730EE480A06
:1025A00003A88DED030A08F021FD9DED037AFFEEEF
:1025B000007AB4EEE77AF1EE10FA7FF5B2AEA379C5
:1025C000012B08BFC4F80CA03B68584698470D2360
:1025D00001E6D9F80C309847D8F8043005469847FA
:1025E000012807D0012305EB0310D9F8083080B289
:1025F00098479AE7D9F8043098470128F2D14FF06C
:10260000FF33F0E704F1140BBB6958469847236A7F
:10261000D5F8089093ED018AEB6882469847D9F87F
:1026200014309FED6F0A608998476C4B9A451FD80C
:10263000D9F83430984730EE480A03A88DED030AE4
:1026400008F0D4FC9DED037AF7EE007AB4EEE77A59
:10265000F1EE10FA7FF765AE3B6858469847A379CC
:1026600023B90123C4F810A0A3717BE70E23B2E5C0
:10267000D9F80C309847D8F8043005469847012817
:1026800003D00123A5EB0310AFE7D9F80430984736
:102690000128F6D14FF0FF33F4E7D4E90332D5F83F
:1026A00008A09F1ADAF80C309847D8F80430814611
:1026B0009847012823D0012141F28832002387FB6B
:1026C0000101FEF77FFB2021039003A808F05DFFC6
:1026D000039B09EB0300AB6880B29B68984741F20B
:1026E0008733FB184FEAE77242F20F7142F10002A2
:1026F0008B4272F10002BFF418AF0F236BE5DAF8DA
:10270000043098470128D6D14FF0FF31D4E7102389
:1027100061E5112BD1E408F0C7F83B680469DB6878
:10272000D4F80480984701B23120C0477B68D4F8C0
:102730000480DB68984701B20620C047BB68646824
:10274000DB68984701B23B20A0472B6806F11400D4
:1027500098470723FFF72CBAAB6806F11400984797
:10276000B0F57A7FFFF453AA0823FFF721BA08F0E7
:102770009BF804693120A3689847A3688046062027
:102780009847A36805463B2098473B68DB680446AA
:1027900098471FFA88F1884209D033790A2B34BF51
:1027A00006220B22013332703371FFF730BA7B6897
:1027B000DB689847AAB29042EFD1BB68DB689847C4
:1027C000A3B29842E9D10923FFF7F2B9054B1B6880
:1027D0001B6903B198470A23FFF7EAB97F1A06007D
:1027E0003333733F1C060020014B1868704700BF4D
:1027F0001C060020F8B508F057F80368144F1C6851
:10280000144EA36801211C209847A3683860012159
:1028100024209847A3683060054601210820984786
:10282000A368A8610121082035689847A368E8617A
:1028300001210820356898473B68074A28625A609A
:10284000064A1A60064ADA60064A9A60F8BD00BF76
:102850001C060020200600205D1B00084D1B000800
:10286000691B0008411B0008024B1B6800221A70FC
:10287000704700BF28060020014B1B68187870477E
:10288000280600202DE9F0472DED028B82B004468A
:10289000B0EE408A08F008F80368D3F804A008F006
:1028A00003F8D0F8088007F0FFFF2678C568D4F851
:1028B00010903EB1012E34D0207802B0BDEC028BD6
:1028C000BDE8F087D8F8503098470128074622D154
:1028D000D8F85830984704F10C00DAF800309847DF
:1028E000EB6898472B68B6EE000A5B69304698475C
:1028F0006B68B6EE000A5B6930469847AB68B6EE87
:10290000000A5B6930469847D9F80C30984784ED47
:10291000028A2770D0E7D8F8543098472B69984737
:10292000CAE7DAF8083004F10C009847D4ED027ACF
:1029300078EE677AB0EE007A77EEC77A054601A89E
:10294000CDED017A08F052FB9DED010AD9F828304F
:10295000F1EE007A20EE670A9847DDED017A9FEDEF
:10296000107AF0EEE77AF4EEC77AD4ED027A38EE18
:10297000678AF1EE10FAF9EE007A48BF0423B4EE4C
:10298000E78A48BF2370F1EE10FA44BF0523237095
:1029900040F6B8339D4284BF062323708CE700BF06
:1029A000CDCC4C3E2DE9F84F624D2DED048B2C68BB
:1029B0002378042B11D8DFE813F00500150012026C
:1029C00035024C02A2680123237000231370226990
:1029D0001370E268137062691370BDEC048B207889
:1029E000BDE8F88F07F060FF0368D3F8048007F0B4
:1029F0005BFFD0F808A007F057FF2F68C668BD68D6
:102A00002B78032B40D8DFE813F004005F00A70009
:102A10007701DAF850309847012881464ED1DAF82C
:102A200058309847381DD8F800309847F3689847D1
:102A30003368B6EE000A5B69002098477368B6EE0B
:102A4000000A5B6900209847B368B6EE000A5B692C
:102A50000020984700237B7002F0BAFA43681B6994
:102A60009847DFED3B7A736820EE270A9B6ABDEE3C
:102A7000C00A85ED010A9847688002F0A9FA036848
:102A8000DB68984785F800902B78043B082BA4D886
:102A900001A252F823F000BF952D0008DB290008A1
:102AA000DB290008452E00084F2E0008172E0008CD
:102AB000212E00088B2E0008952E0008DAF85430DD
:102AC000984733699847DFE70437D8F80830384625
:102AD0009847064602F07CFA03681B699847DFEDC9
:102AE000167A30EE278A02F073FA0368B1EE000A14
:102AF00028EE400A9B6A9847DFED107AB0EEC88A4C
:102B0000B4EEE78AF1EE10FA0AD5D8F8003038466C
:102B1000984702F05DFA4368DB68984702232B7000
:102B2000B6F57A6FB0D9D8F8003038469847082300
:102B3000B7E000BF2806002000000C429A99993E99
:102B40000000B43BCDCC4C3E00008CC200003443AE
:102B5000610B36430000C84207F10409D8F8083079
:102B60004846984773689B6A824698476B886A68AC
:102B7000C31A02FA83F307EE903A6B607368B8EEFB
:102B8000E78A5FED117A9B6A28EE278A984768806A
:102B900002F01EFA4368B1EE009A9B6A28EE490AD9
:102BA00098475FED187AB0EEC87AB4EEE77AF1EEA6
:102BB00010FAF0EE408A0AD5D8F800304846984717
:102BC00002F006FA0368DB68984703232B70B0EE27
:102BD000E80AB4EEC90AF1EE10FA37DD07F064FE38
:102BE000C3695B68984701285DD133685B68984783
:102BF000002858D15FED2C7AB4EEE78AF1EE10FA96
:102C000024DDFBEE0E7AB4EEE78AF1EE10FA1DD564
:102C1000D8F800304846984702F0DAF943681B6953
:102C200098475FED367A30EE270A5FED377A20EE6F
:102C3000270ABDEEC00A85ED010A73689B6A9847B2
:102C4000688002F0C5F94368DB68984702F0C0F974
:102C500043681B6998475FED417AB0EEC00AB4EE55
:102C6000E70AF1EE10FA16DD07F01EFEC3695B6895
:102C70009847336880465B689847B8F1010F7368DE
:102C800035D1A0BB844A9B6A6A609847012368805B
:102C90007B7004232B7041F270739A457FF6F4AE7B
:102CA0000A232B70F0E6F3EE0E7AB4EEE78AF1EE2B
:102CB00010FACBDDDFED797AB4EEE78AF1EE10FAA7
:102CC000C4D5D8F800304846984702F081F94368E7
:102CD0001B699847DFED727A9FED727A77EEC07AC2
:102CE00067EEC77AFDEEE77AC5ED017AA5E747F60C
:102CF000F8729B6A6A60C8E707F1040BD8F80830DD
:102D000058469847814602F063F903681B69984763
:102D1000B0EE408A02F05CF90368B1EE000A28EEDA
:102D2000400A9B6A9847DFED607AB0EEC88AB4EE3D
:102D3000E78AF1EE10FA22D5D8F8003058469847C5
:102D4000DAF834301B6A9847DFED587AB4EEE70AB8
:102D5000F1EE10FA1CDD07F0A7FDC3695B68984728
:102D6000012812D133685B68984770B94A4B6B6091
:102D700073689B6A9847012368807B702B7040F6CC
:102D8000B83399457FF680AED1E647F6F873EEE7A3
:102D90000423F3E76578012D12D107F085FDC3699F
:102DA0005B68984778B907F07FFDC36928461B68C0
:102DB000984702F00DF943681B6A6FF0B30098471B
:102DC0000223237009E607F06FFDC36900201B682A
:102DD000984702F0FDF8436800201B6AEFE707F010
:102DE00063FDC3695B689847022825690CD007F02A
:102DF0005BFD83689B6B9B6898472846FFF742FD05
:102E0000042806D10323DCE707F04EFD8368DB6B63
:102E1000F1E7052801D10623D3E706287FF4DDADCD
:102E20000723CEE7E56807F03FFD83685B6B9B688F
:102E300098472846FFF726FD042801D12070CCE5ED
:102E4000052801D10823BCE706287FF4C6AD092375
:102E5000B7E707F029FDC3695B68984702286569F1
:102E60000CD007F021FD8368DB6B9B6898472846F0
:102E7000FFF708FD042806D10523A2E707F014FD9B
:102E800083689B6BF1E7052801D10A2399E706289F
:102E90007FF4A3AD0B2394E70880FFFF00008C4272
:102EA0000000B443610B3643CDCC4C3E00000243DE
:102EB000014B1868704700BF2406002070B507F06A
:102EC000F3FC03681D4E1D6807F0EEFCAB680121A2
:102ED0000C209847AB683060012118209847184BA8
:102EE000044618600121AB6814209847AB68A060C5
:102EF000012114209847E06002F06AF8E368026854
:102F00001A610121AB6814209847206102F060F833
:102F1000236942681A610121AB68142098476061F7
:102F200002F056F8636982681A613368054A1A60CC
:102F3000054A9A60054A5A6070BD00BF2406002009
:102F4000280600206928000879280008A52900081B
:102F5000024B1B6801225A70704700BF30060020E8
:102F6000024B1B6800225A70704700BF30060020D9
:102F7000024B1B6801221A70704700BF3006002008
:102F8000024B1B6803221A70704700BF30060020F6
:102F9000024B1B68DB6983ED090A7047300600208D
:102FA000024B1B68DB6983ED0B0A7047300600207B
:102FB000024B1B68DB6993ED090A7047300600205D
:102FC000024B1B68DB6993ED0B0A7047300600204B
:102FD000024B1B681B6A83ED090A7047300600200C
:102FE000024B1B681B6A83ED0B0A704730060020FA
:102FF000024B1B681B6A93ED090A704730060020DC
:10300000024B1B681B6A93ED0B0A704730060020C9
:10301000024B1B685B6A83ED090A7047300600208B
:10302000024B1B685B6A83ED0B0A70473006002079
:10303000024B1B685B6A93ED090A7047300600205B
:10304000024B1B685B6A93ED0B0A70473006002049
:10305000084A12680346507950B1D269926C0BB19C
:103060001069186009B90120704753690B60FAE7CD
:10307000704700BF30060020084A126803465079A6
:1030800050B1126A926C0BB11069186009B9012035
:10309000704753690B60FAE7704700BF30060020A5
:1030A000084A12680346507950B1526A926C0BB1CB
:1030B0001069186009B90120704753690B60FAE77D
:1030C000704700BF30060020034B1B68DB699B6C18
:1030D0000122D8789A70704730060020034B1B6895
:1030E0001B6A9B6C0122D8789A70704730060020CA
:1030F000034B1B685B6A9B6C0122D8789A707047FF
:1031000030060020024B1B68DB69586C704700BF1B
:1031100030060020024B1B681B6A586C704700BFCA
:1031200030060020024B1B685B6A586C704700BF7A
:1031300030060020024B1B68DB6993ED070A7047DD
:1031400030060020024B1B689B6A93ED050A70470E
:1031500030060020024B1B689B6A93ED060A7047FD
:1031600030060020024B1B689B6A5868704700BFFE
:1031700030060020024B1B689B6A00221A707047C1
:1031800030060020024B1B689B6A1878704700BF0E
:1031900030060020024B1B681B6A93ED070A70473C
:1031A00030060020024B1B68DB6A93ED050A70476E
:1031B00030060020024B1B68DB6A93ED060A70475D
:1031C00030060020024B1B68DB6A5868704700BF5E
:1031D00030060020024B1B68DB6A00221A70704721
:1031E00030060020024B1B68DB6A1878704700BF6E
:1031F00030060020024B1B685B6A93ED070A70479C
:1032000030060020024B1B681B6B93ED050A7047CC
:1032100030060020024B1B681B6B93ED060A7047BB
:1032200030060020024B1B681B6B5868704700BFBC
:1032300030060020074B1B681B6B10B901221A7067
:103240007047012801D10222F9E70228F8D10022B3
:10325000F5E700BF30060020024B1B681B6B187897
:10326000704700BF30060020024B1B680022DA7056
:10327000704700BF30060020024B1B6893ED030A25
:10328000704700BF30060020024B1B68DB6993EDDE
:103290000C0A704730060020024B1B6893ED040AAD
:1032A000704700BF30060020024B1B6883ED020A06
:1032B000704700BF30060020024B1B68DB6993EDAE
:1032C000030A704730060020024B1B681B6A93ED0F
:1032D000030A704730060020024B1B685B6A93EDBF
:1032E000030A7047300600202DE9F0472DED028BD0
:1032F00007F0DAFAC56807F0D7FA03691E6807F025
:10330000D3FA984B1F68D7F8289099F80030B3B9D2
:10331000032389F80030D7F82C8098F80030002B70
:103320004AD1032388F800303C6B2378032B00F24A
:10333000B980DFE813F09600BB00D400D600032B61
:10334000E9D12B68DB6A98470128E4D12B689B6A96
:103350009847B3688246222098472B689B6B84B2BB
:1033600098472B685B6880469847012815BFAAEBF1
:103370000403A4EB0A031BB21BB207EE903A9FEDC5
:103380007A7ADFED7A6AC9F80430F8EEE77A08BF96
:10339000C8F1000867EE877A2B68C9ED057A07EE59
:1033A000908AF8EEE77A1B6B67EEA67A67EE877A6B
:1033B000C9ED067A9847AEE7032BB5D16B68DB6A97
:1033C00098470128B0D16B689B6A9847B3688246DA
:1033D000232098476B689B6B84B298476B685B6847
:1033E00081469847012814BFAAEB0404A4EB0A0401
:1033F000D8F80830B8F802A014BF24B224B21C4494
:10340000A4B208BFC9F10009A8F80240994407F026
:103410004BFAC369DB68984708B3A4EB0A0AD8F8EB
:10342000044004FA8AF407EE904A9FED4F7ADFEDEC
:103430004F6A6B68C8F80440F8EEE77A1B6B67EEDA
:10344000877AC8ED057A07EE909AF8EEE77A67EE8C
:10345000A67A67EE877AC8ED067A984764E724B2C1
:10346000E1E7AB689B6A9847E0B1B36842209847B0
:10347000AB689B6A06469847801B03B207EE903AFA
:103480009FED3B7AF8EEE77A77EE877AFDEEE77A02
:1034900017EE903A1BB26360AB689B6A98476080F6
:1034A00003232370BDEC028BBDE8F0874EF2C4739A
:1034B0006360AB689B6A9847AB6860805B689847BD
:1034C00063689FED297A012808BF5B4207EE903AB6
:1034D000F8EEE77A67EE877AC4ED057AE0E7254BE8
:1034E000E6E7AB68DB6A98470128DBD1AB689B6AEB
:1034F0009847AB6866889B6B0746861B984763684E
:10350000678036B233446360AB685B6808EE100ACC
:1035100098470128DFED146A6368B8EEC87A17D1BE
:103520005B4207EE903AF8EEE77A9FED136A67EE9A
:10353000A67ABDEC028B27EE067AAB68C4ED057A5D
:1035400067EE266A1B6BC4ED066ABDE8F0471847B4
:1035500007EE903AF8EEE77A9FED046A67EEA67AF6
:10356000E7E700BF300600200000B43B00004843FE
:103570000060C1453C18FFFF000048C32DE9F04141
:103580002DED028B07F090F9444B1D68EB78012B71
:103590007FD0D5F81C80D8F848305B78002B78D0E5
:1035A0002F6ABB6C5B78002B73D06E6AB36C5B7850
:1035B000002B6ED004699FED3A8A636801211B20BD
:1035C0009847D8F84830D3ED047A636867EE887A74
:1035D0001A20FDEEE77A17EE902A11B29847BB6CDD
:1035E000D3ED047A636867EE887A5420FDEEE77ABB
:1035F00017EE902A11B29847B36CD3ED047A636842
:1036000067EE887A5520FDEEE77A17EE902A11B220
:103610009847D8F84830D3ED057A636867EE887A22
:103620005620FDEEE77A17EE902A11B29847BB6C50
:10363000D3ED057A636867EE887A5720FDEEE77A66
:1036400017EE902A11B29847B36CD3ED057A6368F0
:1036500067EE887A5820FDEEE77A17EE902A11B2CD
:10366000984701236B71D8F84810BA6CD1F8A45070
:103670000B69D2F8A4406B6013696360B36C49694D
:10368000D3F8A4001E6952695B694660A960A26014
:103690008360BDEC028BBDE8F08100BF30060020E6
:1036A00000007A4410B507F0FFF8074B1B681C6B4D
:1036B00003685B6804F120001B68984700232361BE
:1036C0006369E36010BD00BF3006002010B507F04D
:1036D000EBF8074B1B68DC6A03685B6804F12000A9
:1036E0001B689847002323616369E36010BD00BF36
:1036F0003006002010B507F0D7F8074B1B689C6A0E
:1037000003685B6804F120001B689847002323616D
:103710006369E36010BD00BF30060020F8B51C4BA4
:103720001D68EB699B6CD3F8A4402B6A9B6CD3F8A3
:10373000A4706B6A9B6C2DED028BD3F8A460B0EE85
:10374000408A07F038FF01281FD1D4ED027A85EDB9
:10375000048A78EE086AB0EE007AE6EE877A28EE00
:10376000088AC4ED097AD7ED027A84ED0A8AE6EE7A
:10377000877A87ED0A8AC7ED097AD6ED027AA36ABD
:10378000B362E6EE877AC6ED097ABDEC028BF8BD2E
:10379000300600202DE9F0412DED028B07F084F872
:1037A000324B04691B689FED328A5D6ADFED318A16
:1037B000D3E9077697ED090AF0EE047A80EE270A3E
:1037C0001AF00EFF63680220BDEEC00A10EE102A48
:1037D00011B2984797ED0B0A80EE080A1AF000FF25
:1037E00063680B20BDEEC00A10EE102A11B2984794
:1037F00096ED090A80EE280A1AF0F2FE63680520A9
:10380000BDEEC00A10EE102A11B29847DFED1A7A09
:1038100096ED0B0A80EE270A1AF0E2FE63680C2090
:10382000BDEEC00A10EE102A11B2984795ED090AB4
:1038300080EE280A1AF0D4FE63680820BDEEC00AA4
:1038400010EE102A11B2984795ED0B0A80EE080A87
:103850001AF0C6FEBDEC028B63680D20BDE8F04196
:10386000BDEEC00A10EE102A11B218473006002033
:103870000000A042CDCC4C400000C842464B70B581
:103880001C68E369D3ED0C7AF5EEC07AF1EE10FA1C
:103890002DED028B4FF000052CD85D61236AD3ED2E
:1038A0000C7AF5EEC07AF1EE10FA3DD85D61636AEC
:1038B000D3ED0C7AF5EEC07AF1EE10FA4ED85D61D8
:1038C000E369186D18B1426893ED050A9047236AC1
:1038D000186D18B1426893ED050A9047636A186D38
:1038E000002855D0BDEC028B426893ED050ABDE877
:1038F0007040104777EEA77AB7EE007AF6EE006ACE
:10390000B0EE470AA7EEA60A94ED038A87EE000AF6
:1039100007F06BFCE36928EE008ADFED207A28EEE1
:10392000278A83ED058AB9E777EEA77AB7EE007AA2
:10393000F6EE006AB0EE470AA7EEA60A94ED038AF7
:1039400087EE000A07F051FC236A28EE008ADFEDBB
:10395000137A28EE278A83ED058AA8E777EEA77AFF
:10396000B7EE007AF6EE006AB0EE470AA7EEA60AB6
:1039700094ED038A87EE000A07F037FC636A28EEAD
:10398000008ADFED067A28EE278A83ED058A97E71D
:10399000BDEC028B70BD00BF3006002083F9A23E53
:1039A000064B1B68DA6982ED0C0A1A6A5B6A82EDC3
:1039B0000C0A83ED0C0AFFF761BF00BF3006002040
:1039C000F8B5104B1B68D3E907655C6AA96CA26C5B
:1039D000B06C0127DF70002303700B7013704FF081
:1039E0007F5333632B632363FFF748FF064B7362F8
:1039F0004FF08542054B0649F3626A62E9626262F2
:103A0000E362F8BD30060020000048420000C844D0
:103A10000000FA4438B504462DED028BB0B3856C36
:103A2000EB78012B32D0D0ED0E6A90ED0D7A224B5F
:103A300082681B689FED218A596AC6EE877A8142A7
:103A4000C5ED0B7AD2ED007A426867EE887AC5ED53
:103A50000C7A1ED092ED000A20EE080A07F0B8FB9F
:103A6000636885ED0D0A93ED000A20EE080A07F061
:103A7000ADFBA36885ED0E0A93ED000A07F09BFDF0
:103A800007EE900AF8EEE77AC5ED0F7ABDEC028BEF
:103A900038BD196BD1ED057A27EE887A85ED0D7A60
:103AA00092ED000A93ED027A30EE470A30EE670A93
:103AB00020EE080ADDE700BF3006002035FA8E3C14
:103AC0002DE9F04F2DED028B0646CDB040B3846C4E
:103AD000E378012B24D02578B7EE008A2DBB904BDC
:103AE000A361904BE3615C2229466570E570256215
:103AF0006562A56204F1440018F0D4FD8A4BA36509
:103B00008A4B2367C4F88830894BC4F8A03084ED11
:103B1000108A3046FFF77EFF0123A5602370A57051
:103B20004DB0BDEC028BBDE8F08F04F14003DFF82F
:103B300008A207931AAB04F12C084FF00519184698
:103B4000DFF8F8B1CDF8189064220021CDE904A87F
:103B5000CDF808B0CDF80C8018F0A4FD10AD15AF6D
:103B6000CDE9089014220021284618F09BFD14226C
:103B70000021384618F096FD33AB18466422002128
:103B800018F090FD0AAACDE90E9002A906A8CDE989
:103B90000CA7CDE90AB506F03FFC0CAA06A904A8BB
:103BA00006F03AFC0EAA0CA90AA806F035FC4FF064
:103BB00000096B46052238464146CDF8009006F0D4
:103BC000ABF9DDED007A77EE887A08A9C8EE278A8E
:103BD00006A804F11807CDED007AB0EE680A06F0E9
:103BE00087FC0EA9B0EE680A084606F081FC0EAA12
:103BF000114606A806F0B6FC06A9B0EE480A0EA8C3
:103C000006F076FC306D436B984701AB39460522D0
:103C10004046B0EE408ACDF8049006F07DF90AAA3D
:103C200002A908A806F0F8FB9DED010A052238EE6E
:103C3000400A2946284606F0A9F93A4629460523AE
:103C4000384606F023F93046FFF7E4FE06F02CFE76
:103C5000436994ED060A5B6801205B6A984706F0A9
:103C600023FE436994ED070A5B6802205B6A98476C
:103C700006F01AFE436994ED080A5B6803205B6A4C
:103C8000984706F011FE436994ED090A5B68042029
:103C90005B6A984706F008FE436994ED0A0A5B6880
:103CA00005205B6A984706F0FFFDA38800EE103AF6
:103CB00043695B68B8EE400A5B6A06209847A778BC
:103CC000012F29D10521284607F0C6FAF1EE047A22
:103CD000B4EEE70AF1EE10FA1ED5D4ED067AF5EE51
:103CE000C07AF1EE10FA17D5A38801339BB2142BDA
:103CF000A3807FF615AFD6ED0D6A677087EEA67AC2
:103D0000E770D4ED077A84ED047A9FED0A7A67EEC6
:103D1000877AC4ED057A03E70023A38000E700BF9C
:103D200000007AC40000C8C2CDCCCC3D00002041C8
:103D30000000A04035FA8E3C01000500050001009E
:103D40002DE9F0412DED068B84B08DED010A06F0D2
:103D5000ABFDC76806F0A8FD0368D3F8048006F041
:103D6000A3FD43685B685B689847744B1B68022837
:103D70001C6B0646B7EE00AA00F0C180DFED708A2A
:103D8000DFED707A9FED708A042818BFF0EE678A25
:103D900018BFB0EE4A8A5B6A656AD3ED0D9AD8F80F
:103DA000203004F12000984709EE100ADFED677A11
:103DB0009FED670AD4ED05AAB8EE499A01A829EE4D
:103DC000279A07F0D3FB9DED010A2046D0ED047A37
:103DD000B5EEC00AF1EE10FAB3EE047A48BFE9EE90
:103DE000477A00F1100057BFE9EE077AC4ED047A74
:103DF000C4ED047AF0EE400A4CBFDFED560A9FEDA9
:103E0000560A07F081FBD4ED037A94ED047AE7EECD
:103E1000097A03A8C4ED037A7AEEE77ACDED037A46
:103E200007F0E4F8DDED036AF1EE087AF4EEE76AF4
:103E3000F1EE10FA68DDDFED497A7AEEE77AC4ED4B
:103E4000037A9FED477ADFED477A95ED005AD5ED7D
:103E5000024AF0EEE65AB0EE476AA5EEA76AD5ED43
:103E6000035AD5ED017AC5ED036A65EEA77AB4EE83
:103E7000C68AE6EE857A95ED045AD4ED076AC5ED5B
:103E8000045AE4EE857A95ED055A77EE857AF1EEDF
:103E900010FAC5ED057AE6EEA87A78EE8A8A58BF60
:103EA000B0EE468AC7EEA86ADFED2F7AC4ED076A46
:103EB000F0EEE66AF4EEE76AF1EE10FA32DD002386
:103EC000EB610021284606F095F8B0EE690A04F18E
:103ED0001C0007F04BFBD4ED077ABB68F1EE677A64
:103EE000FDEEE77AB0EE480A5B6917EE900A984754
:103EF0009DED030A04B0BDEC068BBDE8F081DFED5B
:103F0000108A9FED118A46E7F9EE087AF4EEE76A27
:103F1000F1EE10FA42BFDFED117A7AEEA7AAC4EDF6
:103F200003AA8EE7022E05D0DFED107A042E18BF0B
:103F3000B0EE677A85ED077AC3E700BF3006002050
:103F4000000070430000FA43CDCC4C3FBD378635AE
:103F500000001643000020C200002042CDCCBC402F
:103F6000CDCC4C3E9A99193E00004844CDCCCC3D76
:103F7000F0B52DED068B85B08DED010A06F094FCB1
:103F8000C66806F091FC03685F6806F08DFC436824
:103F90005B685B6898476C4B1B680228DC6AF7EE2D
:103FA000009A00F0BE80DFED698ADFED697A9FED4F
:103FB000698A042818BFF0EE678A18BFB0EE698AD4
:103FC0001B6A656A93ED0DAA3B6A04F120009847CD
:103FD00009EE100ADFED607A9FED600AD4ED05AAC4
:103FE000B8EE499A01A829EE279A07F0BFFA9DED8D
:103FF000010A2046D0ED047AB5EEC00AF1EE10FABF
:10400000B3EE047A48BFE9EE477A00F1100057BFDB
:10401000E9EE077AC4ED047AC4ED047AF0EE400AC2
:104020004CBFDFED4F0A9FED4F0A07F06DFA94ED9C
:10403000047AD4ED037AE7EE097A03A8C4ED037A93
:104040007AEEE77ACDED037A06F0D0FF9DED037AA4
:10405000F1EE087AB4EEE77AF1EE10FA66DDDFED04
:10406000427A7AEEE77AC4ED037ADFED407ADFED4B
:10407000406AD5ED005A95ED025AB0EEC76AE6EEF9
:10408000276A0021284695ED036AD5ED017A85ED72
:10409000037A66EE277AB4EEE68AE7EE257AD5ED66
:1040A000045A94ED077A85ED046AE5EE257AD5ED9C
:1040B000055A77EEA57AF1EE10FAC5ED057AE7EE2E
:1040C000287A78EEA98A58BFB0EE668A87EEA87A79
:1040D000DFED287A84ED077AB0EEC77AB4EEE77A9E
:1040E000F1EE10FAD4BF244B0023EB6105F082FF00
:1040F000B0EE4A0A04F11C0007F038FAD4ED077A52
:104100007368F1EE677AFDEEE77AB0EE480A5B6914
:1041100017EE900A98479DED030A05B0BDEC068B9B
:10412000F0BDDFED0A8A9FED0B8A49E7F9EE087AC8
:10413000B4EEE77AF1EE10FA42BFDFED0B7A7AEED9
:10414000A7AAC4ED03AA90E7300600200000704340
:104150000000FA43CDCC4C3FBD37863500001643F6
:10416000000020C200002042CDCCBC409A99193EEC
:10417000CDCC4C3E00004844CDCCCC3DF0B52DED2F
:10418000068B85B08DED010A06F08EFBC66806F041
:104190008BFB03685F6806F087FB43685B685B68BE
:1041A00098476D4B1B6802289C6AF7EE009A00F056
:1041B000BF80DFED6A8ADFED6A7A9FED6A8A0428A4
:1041C00018BFF0EE678A18BFB0EE698ADB69656ACE
:1041D00093ED0DAA3B6A04F12000984709EE100AFE
:1041E000DFED617A9FED610AD4ED05AAB8EE499A38
:1041F00001A829EE279A07F0B9F99DED010A20469A
:10420000D0ED047AB5EEC00AF1EE10FAB3EE047AFE
:1042100048BFE9EE477A00F1100057BFE9EE077A90
:10422000C4ED047AC4ED047AF0EE400A4CBFDFED31
:10423000500A9FED500A07F067F994ED047AD4ED27
:10424000037AE7EE097A03A8C4ED037A7AEEE77AF7
:10425000CDED037A06F0CAFE9DED037AF1EE087A01
:10426000B4EEE77AF1EE10FA67DDDFED437A7AEE2D
:10427000E77AC4ED037A9FED416ADFED416AD5ED3F
:10428000035A95ED005AD5ED024A85ED037AF0EE1A
:10429000C77AE7EE866A00212846D5ED017A65EEF9
:1042A000A77AB4EEE68AE7EE057A95ED045A94ED26
:1042B000077AC5ED045AE4EE857A95ED055A77EE56
:1042C000857AF1EE10FAC5ED057AE7EE287A78EEF8
:1042D000A98A58BFB0EE668A87EEA87ADFED297A00
:1042E00084ED077AB0EEC77AB4EEE77AF1EE10FA11
:1042F000C6BF0023EB6185ED076A05F07BFEB0EEDB
:104300004A0A04F11C0007F031F9D4ED077A33684A
:10431000F1EE677AFDEEE77AB0EE480A5B6917EED8
:10432000900A98479DED030A05B0BDEC068BF0BDE1
:10433000DFED0A8A9FED0B8A48E7F9EE087AB4EEC2
:10434000E77AF1EE10FA42BFDFED0B7A7AEEA7AA18
:10435000C4ED03AA8FE700BF300600200000A04292
:1043600000007A43CDCC4C3FBD3786350000164364
:10437000000020C200002042CDCCBC40CDCCCC3DC2
:10438000CDCC4C3E00004844044B1A68B62343434E
:10439000106B40F8083F06F0FBBE00BF300600205F
:1043A000044B1A68B6234343D06A40F8083F06F02E
:1043B000EFBE00BF30060020044B1A68B62343430B
:1043C000906A40F8083F06F0E3BE00BF30060020C8
:1043D0002DE9F04F2DED028B83B006F065FAB14B5D
:1043E000D0F80CA0D3F80080D8E90776D8F824508C
:1043F00006F05AFAD0F81090D9F800400920A368C6
:10440000984707EE900AF8EEE77AA368C7ED0C7AB2
:104410000920984707EE900ADAF80830F8EEE77AB4
:104420001B68C6ED0C7A9847012808D1A3680920BB
:10443000984707EE900AF8EEE77AC5ED0C7AFFF799
:104440001DFAA3689FED988ADFED988A02209847AD
:1044500007EE900AF8EEE77AB0EE047A67EE877A14
:10446000A368C7ED097A0B20984707EE900AF8EE8B
:10447000E77ADAF8003067EE887A1B6AC7ED0B7AC4
:10448000984707EE900ADAF80030F8EEE77AD3F8AA
:1044900008B0C7ED0D7AA3683120984780B2D8479D
:1044A000A3680520984707EE900AF8EEE77AA3681C
:1044B00067EEA87A0C20C6ED097A984707EE900AB5
:1044C0009FED7B7ADAF80430F8EEE77A1B6A67EE44
:1044D000877AC6ED0B7A984707EE900ADAF804302F
:1044E000F8EEE77AD3F808B0C6ED0D7AA368062097
:1044F000984780B2D847A3680820984707EE900AEB
:10450000F8EEE77AA36867EEA87A0D20C5ED097A80
:10451000984707EE900AF8EEE77ADAF8083067EE87
:10452000887A1B6AC5ED0B7A984707EE900ADAF88D
:104530000830F8EEE77AD3F808A0C5ED0D7AA36845
:104540003B20984780B2D047A36818209847C0B254
:1045500088F8040058B9BB6CD3F8A4301870B36C59
:10456000D3F8A4301870AB6CD3F8A4301870A368DB
:104570001B20984780B2012804D9D9F804300021C3
:104580001B209847A3681B209847C0B2012888F8D1
:10459000050079D1A3689FED478A1A20984707EE56
:1045A000900ABB6CF8EEE77AD3F8A43067EE887A0D
:1045B0005420C3ED017AA368984707EE900AB36CC4
:1045C000F8EEE77AD3F8A43067EE887A5520C3ED89
:1045D000017AA368984707EE900AAB6CF8EEE77A89
:1045E000D3F8A43067EE887A5620C3ED017AA36829
:1045F000984707EE900ABB6CF8EEE77AD3F8A43040
:1046000067EE887A5720C3ED027AA368984707EED1
:10461000900AB36CF8EEE77AD3F8A43067EE887AA4
:104620005820C3ED027AA368984707EE900AAB6C56
:10463000F8EEE77AD3F8A43067EE887AC3ED027A11
:10464000A368032098470521ADF806004FF4C8720F
:104650000DF1060006F043FFA36803209847BDF95B
:104660000610884203D0D9F8043003209847BDF9DA
:10467000063000EE103AB8EEC00AFFF74FF803B06C
:10468000BDEC028BBDE8F08FBB6CD3F8A4200023F7
:104690001370B26CD2F8A4201370AA6CD2F8A420C4
:1046A0001370CDE7300600200000A042CDCC4C4076
:1046B0000000C8426F12833A2DE9F0415C4F90ED43
:1046C000087A3B68D0ED0B7A2DED068B90ED098AC8
:1046D000998820EE088A60EE277A28EE078A40F251
:1046E000011290ED077A9142A7EE278A0546F0EE77
:1046F000408A3CD1DB78002B39D1866CD6F8A440B7
:1047000094ED010A06F057FF013040F08E80AB684F
:10471000D4ED017A93ED009A2378D5ED0EAA94EDAD
:104720000A5AC7EEA89AD4ED027A87EEA8AAD4ED69
:10473000097AA3BB286D436B984784ED050A84ED85
:10474000070AAAEEE90A0023A3612362A9EE4A0A36
:104750000123237084ED039AC0EE297A84ED040AC4
:10476000AB6CC6ED037AD3ED037A38EE678AD5EDEC
:104770000D0AB0EE480A06F0DBFE30EE488AD5EDB1
:104780000D7A85ED0F8ABDEC068B85ED0E0AB1EE34
:10479000400AEB6D80EE270ABDE8F04118473B6800
:1047A000D4ED035AD3ED066A94ED046A9FED217AA5
:1047B000F8EE666A35EEC99A67EEE87A66EE876AC1
:1047C000B0EE467AA7EE897AF7EE084AAAEEA97A01
:1047D000D5ED0F7A69EEA44AAAEE257A25EE685A3D
:1047E00067EEE47AF6EE004AE9EE057A94ED075AB0
:1047F000C4ED067A37EE055A84ED057A25EE245A83
:1048000084ED077AE6EE855AC4ED035AD4ED085AD2
:10481000C4ED087A77EEA55A65EEA45AA6EEA56A0D
:10482000C6EE297A84ED046A9AE7DFED037A97E70A
:1048300030060020BD378635000000002DE9F04726
:104840002DED088B874B884F1D683C6888B006F0BB
:104850002BF80368D3F804802378013B042B00F283
:10486000AF80DFE813F005000B01AB03AF03AF032C
:10487000A36B5B6D9847A36B1B6D9847012840F0B5
:104880009F80A36BDB6E9847E36984ED030AD3ED49
:104890000C7AF5EEC07AF1EE10FAB0EE408A4FF0E5
:1048A000000500F293805D61236AD3ED0C7AF5EE8A
:1048B000C07AF1EE10FA00F2A1805D61636AD3ED77
:1048C0000C7AF5EEC07AF1EE10FA00F2B1805D617B
:1048D000E569EB6C93B9D4ED030A9FED640AB7EE7A
:1048E000001A07F037F9E369E864D3E90121D86CCD
:1048F000D1ED000AC36A92ED000A9847256AEB6C75
:1049000093B9D4ED030A9FED590AB7EE001A07F0E8
:1049100021F9236AE864D3E90121D86CD1ED000ABA
:10492000C36A92ED000A9847656AEB6C93B9D4EDBF
:10493000030A9FED4E0AB7EE001A07F00BF9636AFF
:10494000E864D3E90121D86CD1ED000AC36A92ED85
:10495000000A9847E5692B6D43B99FED451AD4EDE0
:10496000030A95ED050A07F0F5F82865256A2B6D11
:1049700043B99FED3F1AD4ED030A95ED050A07F000
:10498000E9F82865656A2B6D43B99FED391AD4EDB6
:10499000030A95ED050A07F0DDF82865E369A26BC7
:1049A0005B6C516B03F10C00083308604B60936D36
:1049B0009847D8F8003004F1140098470223237078
:1049C000207808B0BDEC088BBDE8F08777EEA77AB9
:1049D000B7EE007AF6EE006AB0EE470AA7EEA60A36
:1049E00087EE000A06F001FCE36928EE008ADFED9D
:1049F000217A28EE278A83ED058A55E777EEA77A94
:104A0000B7EE007AF6EE006AB0EE470AA7EEA60A05
:104A100094ED038A87EE000A06F0E7FB236A28EE8E
:104A2000008ADFED147A28EE278A83ED058A45E7B0
:104A300077EEA77AB7EE007AF6EE006AB0EE470A94
:104A4000A7EEA60A94ED038A87EE000A06F0CDFBD6
:104A5000636A28EE008ADFED077A28EE278A83ED65
:104A6000058A35E72C060020300600200000A04211
:104A70008FC2F53E83F9A23EBD37863504F1140995
:104A8000D8F818304846984707EE900A2B68E66930
:104A9000A061B8EE678A5FED087A28EE278AD3ED29
:104AA000017AF5EE407AF1EE10FA1ED096ED047A16
:104AB00077EE877AB6EE007A67EE877A93ED007A22
:104AC000A7EE887AD6ED077A83ED007AB1EE047A04
:104AD000F4EEC77AF1EE10FA40F339827268D2ED43
:104AE000007A77EEC77AC3ED007AF06C93ED000A96
:104AF00008B1836A98472A68E369526886ED030A19
:104B00001A616B68266AD3ED017A93ED007AF5EEAF
:104B1000407AF1EE10FA1CD0D6ED046A77EEA67A50
:104B2000F6EE006A67EEA67AA7EE887AD6ED077AE7
:104B300083ED007AB1EE047AF4EEC77AF1EE10FA62
:104B400040F313827268D2ED007A77EEC77AC3ED34
:104B5000007AF06C93ED000A08B1836A98476A689E
:104B6000236A526886ED030A1A61AB68666AD3ED60
:104B7000017A93ED007AF5EE407AF1EE10FA1CD04E
:104B8000D6ED046A77EEA67AF6EE006A67EEA67AAC
:104B9000A7EE887AD6ED077A83ED007AB1EE047A33
:104BA000F4EEC77AF1EE10FA40F3ED817268D2EDBF
:104BB000007A77EEC77AC3ED007AF06C93ED000AC5
:104BC00008B1836A9847AA68636A526886ED030A47
:104BD0001A61E3695A68D3ED037A92ED000AB1EEE7
:104BE000081A30EE670AF9EE080A06F065FCE56976
:104BF000286DAB68F0EE40AA002800F0D281826AEE
:104C000093ED000A9047E36985ED060AD3ED047A37
:104C1000D3ED069A236A5A6879EEE79A92ED000A74
:104C2000D3ED037AB1EE081A30EE670AF9EE080AFE
:104C300006F042FC256A286DAB68F0EE408A002839
:104C400000F0B281826A93ED000A9047236A85EDF5
:104C5000060AD3ED047A93ED068A636A5A6838EE41
:104C6000678A92ED000AD3ED037AB1EE081A30EEAE
:104C7000670AF9EE080A06F01FFC656A286DAB6842
:104C8000F0EE40BA002800F09281826A93ED000AAB
:104C90009047636A85ED060AD3ED047A93ED06BA70
:104CA000E369A26A5B6892ED050A3BEE67BAD3ED51
:104CB000007A01A930EE670A684606F08BFA05F023
:104CC000F3FD83689B6B9B6A9847B0EE40AA05F0A2
:104CD000EBFD83689B6B5B6A9847E36A02A803A9B4
:104CE000B0EE409A93ED050A06F074FA9DED036A62
:104CF000DDED027ADDED006ADDED015AE36987EE54
:104D0000864A65EE897A66EE844AB0EE6A5AB0EE5B
:104D10004A7A97EE847AA4EEA85A26EE899AA7EEEC
:104D20002B5A28EEA80A83ED075AB0EE695AA4EE72
:104D3000885AAAEEAA0AA7EE0B5A2BEEC97A83ED7F
:104D4000085AA5EEA87A236A2BEE499A83ED077AD2
:104D500027EEAB7A67EE8B7AA6EEA87AE6EE887A33
:104D6000A5EE889AC7EE065A87EE867A83ED089AF2
:104D7000636AABEEAB0AC3ED075A83ED087A06F01F
:104D800017FAE36993ED077A236AD3ED077A636A2A
:104D9000B0EE409A27EEA70AD3ED077AA7EE070AEE
:104DA000A7EEA70A06F004FAC9EE008A28EE080A60
:104DB000A9EEA90AABEE0B0A06F0FAF9E36993ED46
:104DC000087A236AD3ED087A636AB0EE408A27EE48
:104DD000A70AD3ED087AA7EE070AA7EEA70A06F0FE
:104DE000E7F9F7EE006AF4EEE68AF1EE10FAC8EEA3
:104DF000007AE06913D5236A90ED077A27EE287AC6
:104E000080ED077A93ED077A27EE287A83ED077A0B
:104E1000636A93ED077A27EE287A83ED077AF4EE3A
:104E2000E67AF1EE10FA13D590ED087A236A27EEB0
:104E3000277A80ED087A93ED087A27EE277A83EDBA
:104E4000087A636A93ED087A67EE277AC3ED087AE9
:104E5000B1EE080A1C3006F089FB206AB1EE080AA0
:104E60001C3006F083FB606AB1EE080A1C3006F0C5
:104E70007DFB3B68DA7872B1D3E907A65D6A03F07F
:104E8000B5FF012800F09680022800F0958010B947
:104E90005046FEF715FE05F007FD3B68C568D8696A
:104EA000B7EE000AFFF708FC3B681E6A9B6A07A979
:104EB00093ED050A06A806F08DF99DED060A9FED13
:104EC000437ADDED077A20EE000A304620EE070A2D
:104ED000A7EEA70AFFF7F0FBAB681B68984701280D
:104EE0002AD13D68D5E9096305A993ED050A04A80F
:104EF00006F070F9EB6A06A893ED050A07A906F01B
:104F000069F99DED040ADDED057A9DED077A20EE45
:104F1000000AF6EE006A20EE260A3046A7EEA70A3F
:104F2000DDED067A67EEA77A67EEA67AE7EE077AF6
:104F300020EE270AFFF7C0FBD8F800304846984714
:104F40006378012BE36B3ED1DB68984738E5F9EED7
:104F5000046AF4EEE67AF1EE10FA7FF5C6AD7268F7
:104F6000D2ED007A77EE877ABDE5F9EE046AF4EEC9
:104F7000E67AF1EE10FA7FF5ECAD7268D2ED007AC8
:104F800077EE877AE3E5F9EE046AF4EEE67AF1EE7D
:104F900010FA7FF512AE7268D2ED007A77EE877A5A
:104FA00009E693ED000A2EE693ED000A4EE693ED36
:104FB000000A6EE630466CE728466AE76278E36BE3
:104FC000012AC0E7E36B1B69BFE700BF9A99993ECE
:104FD000014B1868704700BF2C0600202DE9F84FE0
:104FE00005F062FC0368B04F1D68B04E05F05CFC34
:104FF0000368D3F808A005F057FC43685B685B685A
:105000009847AB688146012148209847AB683860D3
:1050100001214C209847AB683060044601214C20A8
:105020009847AB68206001214C2034689847AB68F2
:10503000606001214C2034689847A0603C680027DC
:105040002770AB68012160209847AB68E06180461B
:105050000121102098470121AB68C8F844002420A2
:10506000D4F81C809847E369C8F8540004F1180884
:10507000C3F8408005F018FCC268E3691268526901
:105080009A6505F011FCC268E36912689269DA65F5
:1050900005F00AFC8368D4F81CB05B6BDB689847AA
:1050A000CBF8040005F000FC8368D4F81CB05B6BFF
:1050B0005B699847AB68CBF808000121A820D4F8B9
:1050C0001CB09847E369CBF84800D3F848B0AB6808
:1050D00001212C209847AB68CBF8A4000121602067
:1050E0009847AB6820628346012110209847012130
:1050F000AB68CBF844002420D4F820B09847236A4A
:10510000CBF85400C3F8408005F0CEFBC268236A98
:10511000526852699A6505F0C7FBC268236A5268F3
:105120009269DA6505F0C0FB8368D4F820B09B6B08
:10513000DB689847CBF8040005F0B6FB8368D4F829
:1051400020B09B6B5B699847AB68CBF808000121E6
:10515000A820D4F820B09847236ACBF84800D3F8A9
:1051600048B0AB6801212C209847AB68CBF8A4006D
:10517000012160209847AB686062834601211020BE
:1051800098470121AB68CBF844002420D4F824B020
:105190009847636ACBF85400C3F8408005F084FB5D
:1051A000C268636A9268DFF810B152699A6505F0C7
:1051B0007BFBC268636A92689269DA6505F074FBEA
:1051C0008368D4F82480DB6BDB689847C8F8040058
:1051D00005F06AFB8368D4F82480DB6B5B69984731
:1051E000AB68C8F808000121A820D4F824809847AB
:1051F000636AC8F84800D3F84880AB6801212C20C6
:105200009847AB68C8F8A400012128209847AB68EC
:10521000A0628046012124209847AB68C8F824008A
:10522000012128209847AB68E062804601212420B4
:105230009847AB68C8F82400012128209847AB683C
:1052400020638046012124209847C8F82400FFF7F6
:10525000BFF8A36A164D586AB9F1020F03D0B9F12D
:10526000040F40F00B8104F0DFFEA36A114F586A6F
:105270000021C0F818B00762C56104F0BBFEE36A04
:10528000586A04F0D1FEE36A586A0021C0F818B0E9
:105290000762C56104F0AEFE236B586A04F0C4FED9
:1052A000236B586A0AE000BF300600202C0600205D
:1052B000CDCCCC3D007C124900004844854B836135
:1052C000854B0362854BC361002104F093FE336874
:1052D000834A1A61834ADA60834A9A61834A5A612F
:1052E0001A688349D1608349116283499162834975
:1052F000D161834911618349516183499161834936
:105300005162834991608349D16283491163834922
:105310005163834991638349D1638349116483490C
:105320005164834991645A688249D160824911620B
:10533000824991628249D1618249116182495161F8
:105340008249916182495162824991608249D16268
:105350008249116382495163824991638249D163D1
:105360008249116482495164824991649A688249F0
:10537000D16082491162824991628249D161824938
:105380001161824951618249916182495162824928
:1053900091608249D1628249116382495163824995
:1053A00091638249D163824911648249516482497F
:1053B0009164824A1A62824ADA61824A5A62824A55
:1053C0009A62824ADA62824A1A63824A5A63824A3B
:1053D0009A63824ADA63824A1A64824A5A64824A27
:1053E0009A640021DAF808308048984705F05CFAA2
:1053F0004369E0695D68D4E90812EB691C321C312D
:105400001C309847D5F818A005F04EFA83685B6BFE
:10541000DB689847074605F047FA83689B6BDB68B3
:105420009847236B804603F1140905F03DFA836821
:10543000DB6BDB6898474A46034641463846D0470F
:10544000D4E90B12A06A2B6A143214311430984735
:105450003368636405F028FA03685B68636305F0EA
:1054600023FA8368A36305F01FFAC368E36305F0BA
:105470001BFA03691B682364BDE8F88F04F0D4FDB0
:10548000A36ADFF86C81586ADFF86891C0F8189059
:105490003946C0F82080C56104F0ACFDE36A586A63
:1054A00004F0C2FDE36A586A3946C0F81890C0F8A3
:1054B0002080C56104F09EFD236B586A04F0B4FDA2
:1054C000236B586A3946C0F818B0C0F82080C5610F
:1054D000FBE600BF00007A44007C9249CDCC4C3EF4
:1054E000612F0008512F0008812F0008712F00083C
:1054F000F5360008B94300087D4100087531000801
:105500004531000855310008653100088531000833
:105510003531000805310008912F0008A12F00083F
:10552000B12F0008C12F000851300008C930000811
:10553000B9320008CD360008A1430008713F0008C9
:10554000D5310008A5310008B5310008C531000883
:10555000E53100089531000815310008D12F000809
:10556000E12F0008F12F0008013000087930000811
:10557000DD300008C9320008A5360008894300085C
:10558000413D000835320008053200081532000898
:105590002532000859320008F5310008253100088D
:1055A0001130000821300008313000084130000877
:1055B000A1300008F1300008D93200083D48000849
:1055C000D1430008C1390008793200088932000847
:1055D000A139000895370008693200087D350008B8
:1055E0001D37000899320008A9320008E932000886
:1055F00000BA5B4900002F44024B1B6800221A705E
:10560000704700BF340600202DE9F84F2DED028BC6
:1056100005F04AF903685D6805F046F9C66805F0CB
:1056200043F9D0F8088005F03FF99F4BD0F81CB043
:105630001C68FFF7CDFCD0F800A0FFF7C9FCD0F83C
:105640000490FFF7C5FC237887680B2B22D8DFE88E
:1056500013F00C0038005E008800AF00D2001C017F
:105660003F01A601C901FC010602D8F85030984755
:10567000012807461FD1D8F858309847F368984753
:105680002B6804F11000984700236370DAF80C309F
:105690009847277005F008F9237800EE103A43691F
:1056A0005B6801205B6AB8EE400A9847BDEC028B4C
:1056B0002078BDE8F88FD8F8543098473369984778
:1056C000E8E704F11008AB6840469847DAF828305C
:1056D0009FED770A07469847F1EE007AB0EEC00AD0
:1056E000B4EEE70AF1EE10FA0BDD33689B6A9847D7
:1056F0002B68608040469847DAF80C3098470223C0
:10570000237042F210739F42C4D90D23C9E004F103
:105710001007AB6838469847D8F834309B6806467F
:105720009847DFED627ADAF8283030EE678AB2EE19
:10573000040A28EE400A9847DFED627AB0EEC88A84
:10574000B4EEE78AF1EE10FA07D52B683846984791
:10575000D9F80C3098470323237042F210739E420D
:10576000D2E704F11008AB6840469847DBF80430F4
:105770000746984701280CBF9FED4E0A9FED4C0A43
:10578000D9F828309847F1EE007AB0EEC00AB4EEAE
:10579000E70AF1EE10FAB4DD73689B6A98472B684C
:1057A000A08040469847D9F80C3098470423A7E7D3
:1057B00004F1100AAB6850469847D8F838309B6817
:1057C00006469847B0EE408AB2EE040A28EE400A38
:1057D000D9F828309847DFED3B7AB0EEC88AB4EEAE
:1057E000E78AF1EE10FAB8D52B6850469847FB6867
:1057F00098470523B0E704F11009AB68484698477D
:10580000B3685B68804698470128BB6A21D19FED49
:10581000290A9847F1EE007AB4EEE70AF1EE10FAA1
:1058200013DDB3689B6A9847B368E0809B6A98472A
:1058300000262B682081E66048469847FB69304681
:105840009847FB6898470723237044F620639845E0
:105850005AE79FED170A9847F9EE007AB4EEE70A87
:10586000F1EE10FAF1D5B3689B6A9847B368E0800F
:105870009B6A984700262B682081E6604846984737
:10588000FB69304698470623DEE77B6A9847032882
:105890007FF400AF2B6804F110009847FB6898472D
:1058A00007232370F6E600BF340600200000B44250
:1058B00000008C4200008CC20000B43B0080A0437A
:1058C0000080A543CDCC4C3E0010C74600300E46AC
:1058D00004F11009AB6848469847B3689B6A804654
:1058E00098472389A0EB030AB3689B6A9847E3684B
:1058F00020810FFA8AFA5344E360B3685B689847E3
:105900000128BB6A17D11FED160A9847F9EE067AEF
:10591000B4EEE70AF1EE10FA0AD5B3689B6A98472D
:105920002B68E08048469847FB6898470823237017
:1059300049F640438BE71FED210A9847F1EE067ABE
:10594000B4EEE70AF1EE10FAF2DDE3685FED267AD5
:1059500083EAE372A2EBE37208EE102AB8EEC88A7B
:10596000B36828EE278A9B6AF6EE007A28EE278A2B
:1059700098472B68E08048469847FB6898475FED5A
:10598000317AB4EEE78AF1EE10FA06DD5FED347A93
:10599000B4EEE78AF1EE10FAC8D40D23C7E704F19C
:1059A0001006AB6830469847FFF712FB83681B6907
:1059B0009847B0EE408AB2EE040A28EE400ABB6A6D
:1059C00098475FED407AB0EEC88AB4EEE78AF1EE10
:1059D00010FA7FF55FAE2B6830469847FB68984712
:1059E00009235EE704F060FF63881FED497A0669CA
:1059F00007EE903AF8EEE77AA38877EEC77A1FEDC4
:105A00004D7AFDEEE77A222017EE901A07EE903AD3
:105A1000F8EEE77A618077EEC77A09B2FDEEE77AB1
:105A200017EE903AA380736898477368B4F904102E
:105A3000232098477368B4F90610422098472B68D2
:105A400004F1100098470A232BE7AB6804F110001B
:105A50009847B0F57A7FFFF41DAE0B2321E704F0E1
:105A600023FF07692220BB689847BB6806462320AE
:105A70009847BB680546422098476388B6B2B34250
:105A800007D1A388ADB2AB4203D1E38880B2834291
:105A900008D06378092B8CBF0D22092201332270B4
:105AA0006370F7E50C23FCE6014B1868704700BFF4
:105AB0003806002038B504F0F7FE0368094C1D686D
:105AC0000121AB6808209847AB68206001211420B1
:105AD0009847054B054A186023685A60044A1A60C3
