:020000040800F2
:1000000000000220D18C01085D9A0008218D0108B2
:10001000218D0108218D0108218D010800000000BB
:10002000000000000000000000000000218D010819
:10003000218D010800000000218D0108053601080E
:10004000218D0108218D0108218D0108218D0108D4
:1000500000000000819A0008218D0108218D01080F
:10006000218D0108218D0108218D0108218D0108B4
:10007000218D0108218D0108B5670108A9670108D4
:10008000218D0108D5160108218D0108218D010857
:10009000218D0108218D0108218D0108218D010884
:1000A000218D0108218D0108218D0108218D010874
:1000B000218D0108218D0108218D0108218D010864
:1000C000218D0108218D0108218D0108218D010854
:1000D000218D0108218D0108218D0108218D010844
:1000E000218D0108218D0108218D0108218D010834
:1000F000218D0108218D0108218D0108218D010824
:10010000218D0108218D0108218D0108218D010813
:10011000218D0108092C0108218D0108218D01087C
:10012000218D0108218D0108218D0108218D0108F3
:10013000218D0108218D0108218D0108218D0108E3
:10014000218D0108218D0108218D0108218D0108D3
:10015000218D0108218D0108A5160108218D0108B6
:10016000218D0108218D0108218D0108218D0108B3
:10017000218D0108218D0108218D0108218D0108A3
:08018000218D0108218D010809
:1001900010B5054C237833B9044B13B10448AFF3C1
:1001A00000800123237010BDF8050020000000002E
:1001B00024D1010808B5034B1BB103490348AFF331
:1001C000008008BD00000000FC05002024D10108CB
:1001D00001F0FF01102A2BDB10F0070F08D010F8F8
:1001E000013B013A8B422DD010F0070F42B3F6D1FC
:1001F000F0B441EA012141EA014122F007047FF015
:1002000000070023F0E80256083C85EA010586EA6B
:10021000010685FA47F5A3FA87F586FA47F6A5FAA7
:1002200087F68EB9EED1F0BC01F0FF0102F00702B3
:1002300032B110F8013B013A83EA010313B1F8D15E
:100240000020704701387047002D06BF354603383F
:10025000073815F0010F07D1013015F4807F02BF78
:10026000013015F4C03F0130F0BC0138704700BFC9
:10027000034613F8012B002AFBD1181A01387047E6
:1002800081F0004102E000BF83F0004330B54FEA47
:1002900041044FEA430594EA050F08BF90EA020FB4
:1002A0001FBF54EA000C55EA020C7FEA645C7FEA47
:1002B000655C00F0E2804FEA5454D4EB5555B8BF6A
:1002C0006D420CDD2C4480EA020281EA030382EADB
:1002D000000083EA010180EA020281EA0303362D6D
:1002E00088BF30BD11F0004F4FEA01314FF4801C40
:1002F0004CEA113102D0404261EB410113F0004F52
:100300004FEA03334CEA133302D0524263EB430308
:1003100094EA050F00F0A780A4F10104D5F1200EA6
:100320000DDB02FA0EFC22FA05F2801841F1000101
:1003300003FA0EF2801843FA05F359410EE0A5F1D5
:1003400020050EF1200E012A03FA0EFC28BF4CF006
:10035000020C43FA05F3C01851EBE37101F00045BC
:1003600007D54FF0000EDCF1000C7EEB00006EEBC9
:100370000101B1F5801F1BD3B1F5001F0CD3490853
:100380005FEA30004FEA3C0C04F101044FEA4452AA
:1003900012F5800F80F09A80BCF1004F08BF5FEA31
:1003A000500C50F1000041EB045141EA050130BD11
:1003B0005FEA4C0C404141EB0101013C28BFB1F523
:1003C000801FE9D291F0000F04BF01460020B1FA6E
:1003D00081F308BF2033A3F10B03B3F120020CDA41
:1003E0000C3208DD02F1140CC2F10C0201FA0CF01F
:1003F00021FA02F10CE002F11402D8BFC2F1200C84
:1004000001FA02F120FA0CFCDCBF41EA0C01904039
:10041000E41AA2BF01EB0451294330BD6FEA040482
:100420001F3C1CDA0C340EDC04F11404C4F120026D
:1004300020FA04F001FA02F340EA030021FA04F37F
:1004400045EA030130BDC4F10C04C4F1200220FAD6
:1004500002F001FA04F340EA0300294630BD21FA14
:1004600004F0294630BD94F0000F83F4801306BFDA
:1004700081F480110134013D4EE77FEA645C18BFCE
:100480007FEA655C29D094EA050F08BF90EA020F65
:1004900005D054EA000C04BF1946104630BD91EA5D
:1004A000030F1EBF0021002030BD5FEA545C05D160
:1004B0004000494128BF41F0004130BD14F580049F
:1004C0003CBF01F5801130BD01F0004545F0FE4113
:1004D00041F470014FF0000030BD7FEA645C1ABF48
:1004E000194610467FEA655C1CBF0B46024650EA7F
:1004F000013406BF52EA033591EA030F41F40021AB
:1005000030BD00BF90F0000F04BF0021704730B530
:100510004FF4806404F132044FF000054FF0000105
:1005200050E700BF90F0000F04BF0021704730B5C6
:100530004FF4806404F1320410F0004548BF40429B
:100540004FF000013EE700BF42004FEAE2014FEAF0
:1005500031014FEA02701FBF12F07F4393F07F4FCB
:1005600081F06051704732F07F4208BF704793F0CE
:100570007F4F04BF41F40021704730B54FF46074E1
:1005800001F0004521F000411CE700BF50EA0102E4
:1005900008BF704730B54FF000050AE050EA01028D
:1005A00008BF704730B511F0004502D5404261EBFD
:1005B00041014FF4806404F132045FEA915C3FF43E
:1005C000D8AE4FF003025FEADC0C18BF03325FEADB
:1005D000DC0C18BF033202EBDC02C2F1200300FA8C
:1005E00003FC20FA02F001FA03FE40EA0E0021FAB1
:1005F00002F11444BDE600BF70B54FF0FF0C4CF49F
:10060000E06C1CEA11541DBF1CEA135594EA0C0F50
:1006100095EA0C0F00F0DEF82C4481EA030621EA8B
:100620004C5123EA4C5350EA013518BF52EA0335C6
:1006300041F4801143F4801338D0A0FB02CE4FF078
:100640000005E1FB02E506F00042E0FB03E54FF0A8
:100650000006E1FB03569CF0000F18BF4EF0010EA0
:10066000A4F1FF04B6F5007F64F5407404D25FEA9C
:100670004E0E6D4146EB060642EAC62141EA55514F
:100680004FEAC52040EA5E504FEACE2EB4F1FD0C91
:1006900088BFBCF5E06F1ED8BEF1004F08BF5FEA0F
:1006A000500E50F1000041EB045170BD06F00046C1
:1006B00046EA010140EA020081EA0301B4EB5C046E
:1006C000C2BFD4EB0C0541EA045170BD41F4801166
:1006D0004FF0000E013C00F3AB8014F1360FDEBF8B
:1006E000002001F0004170BDC4F10004203C35DA67
:1006F0000C341BDC04F11404C4F1200500FA05F3EA
:1007000020FA04F001FA05F240EA020001F000428A
:1007100021F0004110EBD37021FA04F642EB060100
:100720005EEA430E08BF20EAD37070BDC4F10C042A
:10073000C4F1200500FA04F320FA05F001FA04F2EE
:1007400040EA020001F0004110EBD37041F10001DA
:100750005EEA430E08BF20EAD37070BDC4F12005E5
:1007600000FA05F24EEA020E20FA04F301FA05F24D
:1007700043EA020321FA04F001F0004121FA04F2F5
:1007800020EA020000EBD3705EEA430E08BF20EAC5
:10079000D37070BD94F0000F0FD101F000464000FF
:1007A00041EB010111F4801F08BF013CF7D041EA81
:1007B000060195F0000F18BF704703F00046520085
:1007C00043EB030313F4801F08BF013DF7D043EA56
:1007D0000603704794EA0C0F0CEA135518BF95EA0C
:1007E0000C0F0CD050EA410618BF52EA4306D1D193
:1007F00081EA030101F000414FF0000070BD50EAB2
:10080000410606BF1046194652EA430619D094EA3B
:100810000C0F02D150EA013613D195EA0C0F05D125
:1008200052EA03361CBF104619460AD181EA030179
:1008300001F0004141F0FE4141F470014FF0000031
:1008400070BD41F0FE4141F4780170BD70B54FF0CC
:10085000FF0C4CF4E06C1CEA11541DBF1CEA13554C
:1008600094EA0C0F95EA0C0F00F0A7F8A4EB05042E
:1008700081EA030E52EA03354FEA013100F0888025
:100880004FEA03334FF0805545EA131343EA1263EE
:100890004FEA022245EA111545EA10654FEA0026A3
:1008A0000EF000419D4208BF964244F1FD0404F55C
:1008B000407402D25B084FEA3202B61A65EB0305B8
:1008C0005B084FEA32024FF480104FF4002CB6EB75
:1008D000020E75EB030E22BFB61A754640EA0C00F5
:1008E0005B084FEA3202B6EB020E75EB030E22BF35
:1008F000B61A754640EA5C005B084FEA3202B6EB76
:10090000020E75EB030E22BFB61A754640EA9C0034
:100910005B084FEA3202B6EB020E75EB030E22BF04
:10092000B61A754640EADC0055EA060E18D04FEAC2
:10093000051545EA16754FEA06164FEAC30343EA62
:1009400052734FEAC2025FEA1C1CC0D111F4801F2F
:100950000BD141EA00014FF000004FF0004CB6E728
:1009600011F4801F04BF01430020B4F1FD0C88BFC7
:10097000BCF5E06F3FF6AFAEB5EB030C04BFB6EBD2
:10098000020C5FEA500C50F1000041EB045170BDC5
:100990000EF0004E4EEA113114EB5C04C2BFD4EBF2
:1009A0000C0541EA045170BD41F480114FF0000E76
:1009B000013C90E645EA060E8DE60CEA135594EAF2
:1009C0000C0F08BF95EA0C0F3FF43BAF94EA0C0FF5
:1009D0000AD150EA01347FF434AF95EA0C0F7FF46A
:1009E00025AF104619462CE795EA0C0F06D152EABE
:1009F00003353FF4FDAE1046194622E750EA4106A2
:100A000018BF52EA43067FF4C5AE50EA41047FF4B2
:100A10000DAF52EA43057FF4EBAE12E74FF0FF3C17
:100A200006E000BF4FF0010C02E000BF4FF0010CE8
:100A30004DF804CD4FEA410C7FEA6C5C4FEA430C61
:100A400018BF7FEA6C5C1BD001B050EA410C0CBFB0
:100A500052EA430C91EA030F02BF90EA020F002012
:100A6000704710F1000F91EA030F58BF994208BF79
:100A700090422CBFD8176FEAE37040F00100704736
:100A80004FEA410C7FEA6C5C02D150EA013C07D18D
:100A90004FEA430C7FEA6C5CD6D152EA033CD3D0D8
:100AA0005DF8040B704700BF8446104662468C46D2
:100AB0001946634600E000BF01B5FFF7B7FF002805
:100AC00048BF10F1000F01BD4DF808EDFFF7F4FF2E
:100AD0000CBF012000205DF808FB00BF4DF808EDB9
:100AE000FFF7EAFF34BF012000205DF808FB00BFDC
:100AF0004DF808EDFFF7E0FF94BF012000205DF8FE
:100B000008FB00BF4DF808EDFFF7CEFF94BF0120B2
:100B100000205DF808FB00BF4DF808EDFFF7C4FFAB
:100B200034BF012000205DF808FB00BF4FEA410CF4
:100B30007FEA6C5C02D150EA013C0AD14FEA430CD7
:100B40007FEA6C5C02D152EA033C02D14FF0000014
:100B500070474FF0010070474FEA410212F5001252
:100B600015D211D56FF47873B3EB625212D94FEAF4
:100B7000C12343F0004343EA505311F0004F23FADE
:100B800002F018BF404270474FF00000704750EA33
:100B9000013005D111F0004008BF6FF000407047F0
:100BA0004FF00000704700BF4FEA4102B2F1E0434E
:100BB00024BFB3F5001CDCF1FE5C0DD901F0004C44
:100BC0004FEAC0024CEA5070B2F1004F40EB830094
:100BD00008BF20F00100704711F0804F21D113F1C0
:100BE0003872BCBF01F00040704741F480114FEAF9
:100BF0005252C2F11802C2F1200C10FA0CF320FA82
:100C000002F018BF40F001004FEAC1234FEAD3239E
:100C100003FA0CFC40EA0C0023FA02F34FEA430308
:100C2000CCE77FEA625307D150EA01331EBF4FF091
:100C3000FE4040F44000704701F0004040F0FE40AC
:100C400040F40000704700BF80F0004002E000BFA9
:100C500081F0004142001FBF5FEA410392EA030FA7
:100C60007FEA226C7FEA236C6AD04FEA1262D2EBF1
:100C70001363C1BFD218414048404140B8BF5B42F6
:100C8000192B88BF704710F0004F40F4000020F08F
:100C90007F4018BF404211F0004F41F4000121F0A5
:100CA0007F4118BF494292EA030F3FD0A2F10102EF
:100CB00041FA03FC10EB0C00C3F1200301FA03F12D
:100CC00000F0004302D5494260EB4000B0F5000F50
:100CD00013D3B0F1807F06D340084FEA310102F10F
:100CE0000102FE2A51D2B1F1004F40EBC25008BFC1
:100CF00020F0010040EA03007047490040EB00008B
:100D0000013A28BFB0F5000FEDD2B0FA80FCACF18B
:100D1000080CB2EB0C0200FA0CF0AABF00EBC250B8
:100D200052421843BCBFD0401843704792F0000FA6
:100D300081F4000106BF80F400000132013BB5E7F9
:100D40004FEA41037FEA226C18BF7FEA236C21D06F
:100D500092EA030F04D092F0000F08BF08467047D4
:100D600090EA010F1CBF0020704712F07F4F04D1A2
:100D7000400028BF40F00040704712F100723CBFB5
:100D800000F50000704700F0004343F0FE4040F4DF
:100D9000000070477FEA226216BF08467FEA23639D
:100DA0000146420206BF5FEA412390EA010F40F488
:100DB000800070474FF0000304E000BF10F00043D4
:100DC00048BF40425FEA000C08BF704743F09643BB
:100DD00001464FF000001CE050EA010208BF7047D6
:100DE0004FF000030AE000BF50EA010208BF70475D
:100DF00011F0004302D5404261EB41015FEA010C72
:100E000002BF84460146002043F0B64308BFA3F169
:100E10008053A3F50003BCFA8CF2083AA3EBC2534B
:100E200010DB01FA02FC634400FA02FCC2F120026A
:100E3000BCF1004F20FA02F243EB020008BF20F0A1
:100E40000100704702F1200201FA02FCC2F1200207
:100E500050EA4C0021FA02F243EB020008BF20EAFC
:100E6000DC7070477BB972B90029BEBF00204FF01B
:100E7000004106E008BF00281CBF6FF000414FF0A2
:100E8000FF3000F007BAADF1080C6DE904CE00297F
:100E900009DB002B1ADB00F081F8DDF804E0DDE966
:100EA000022304B07047404261EB4101002B1BDB81
:100EB00000F074F8DDF804E0DDE9022304B04042FC
:100EC00061EB4101524263EB43037047524263EBD3
:100ED000430300F063F8DDF804E0DDE9022304B029
:100EE000404261EB41017047524263EB430300F023
:100EF00055F8DDF804E0DDE9022304B0524263EB6B
:100F00004303704753B94AB9002908BF00281CBFE2
:100F10004FF0FF314FF0FF3000F0BCB9ADF1080CDD
:100F20006DE904CE00F03AF8DDF804E0DDE90223D3
:100F300004B0704707EE900AF5EEC07AF1EE10FAB1
:100F400001D400F00BB8F1EE677A08B517EE900AFD
:100F500000F004F8404261EB410108BDD0B5FFF755
:100F6000F3FA0C4B002206460F46FFF745FB00F054
:100F700093F90446FFF7C6FA074B0022FFF73CFB44
:100F800002460B4630463946FFF77EF900F084F9F9
:100F90002146D0BD0000F03D0000F0412DE9F047B2
:100FA000089D8E4604468846002B4AD18A42174641
:100FB00062D9B2FA82F64EB1C6F1200301FA06F800
:100FC00020FA03F3B74043EA0808B4404FEA174E4B
:100FD0001FFA87FCB8FBFEF1230C0EFB118843EAD5
:100FE000084301FB0CF29A4209D9FB1801F1FF30CA
:100FF00080F0EA809A4240F2E78002393B449A1A34
:10100000A3B2B2FBFEF00EFB102243EA024300FB48
:101010000CFC9C4509D9FB1800F1FF3280F0D6800A
:101020009C4540F2D3803B44023840EA0140A3EBA8
:101030000C0300211DB1F3400022C5E90032BDE8D8
:10104000F0878B4205D90DB1C5E9000100210846A2
:10105000F5E7B3FA83F1002946D1734502D3824202
:1010600000F20581841A6EEB030201209046002DE8
:10107000E5D0C5E90048E2E7002A00F09080B2FA26
:1010800082F6002E40F0A4808A1A030C4FEA174E15
:1010900080B2BCB20121B2FBFEFC0EFB1C2243EA73
:1010A000024304FB0CF29A4207D9FB180CF1FF38FB
:1010B00002D29A4200F2E080C4469B1AB3FBFEF2D1
:1010C0000EFB123340EA034302FB04F49C4207D9AF
:1010D000FB1802F1FF3002D29C4200F2CA800246A5
:1010E0001B1B42EA0C40A5E7C1F120068B4022FA07
:1010F00006F71F430EFA01F420FA06F32EFA06FE55
:101100004FEA1749234300FA01F81FFA87FCBEFB98
:10111000F9F01C0C09FB10EE44EA0E4400FB0CFE37
:10112000A64502FA01F209D93C1900F1FF3A80F014
:101130009C80A64540F2998002383C44A4EB0E0402
:101140001FFA83FEB4FBF9F309FB13444EEA04448F
:1011500003FB0CFCA44508D93C1903F1FF3E80F0C9
:101160008280A4457FD9023B3C4443EA0040A4EB83
:101170000C04A0FB02EC64457346E14662D35FD0E9
:101180005DB1B8EB030264EB090404FA06F622FA37
:1011900001F31E43CC40C5E9006400214FE7B1FBD9
:1011A000F2FC010C41EA0E4180B240EA01423B46AA
:1011B00038463C46B846BE462026B1FBF7F1A2EBC6
:1011C000080241EA0C4166E7014618E710462CE7A1
:1011D000C6F120022EFA02F3B740B14020FA02F223
:1011E0004FEA174E0A43B3FBFEF8BCB20EFB1833AE
:1011F000110C41EA034108FB04F9B04089454FEA6C
:10120000104380B23ED9791808F1FF3C01D28945DC
:101210001FD8A1EB0901B1FBFEF909FB04F80EFB95
:10122000191192B242EA0142424529D2BA1809F193
:10123000FF31C4D24245C2D2A9F102013A44BEE70D
:10124000F0459DD2BEEB02036CEB070C0138E14682
:1012500096E7A7EB09094944A8F1020CB1FBFEF996
:1012600009FB04F8DBE773467FE7504666E708466C
:10127000FDE63B44023A33E7ACF1020C3B441CE789
:1012800049469CE7A1EB0901C446B1FBFEF909FB05
:1012900004F8C4E7704700BF4A0011D212F50012EB
:1012A00011D20DD56FF47873B3EB62520ED44FEABE
:1012B000C12343F0004343EA505323FA02F070473E
:1012C0004FF00000704750EA013002D14FF0FF307C
:1012D00070474FF000007047014B1B68187870474B
:1012E00018060020024B1B6801229A70704700BF4D
:1012F00018060020014B1B689878704718060020DC
:10130000024B1B6807221A70704700BF18060020A6
:1013100010B508F00BFBC3689B68BDE810405B6824
:10132000184710B508F002FBC368BDE810405B69C0
:10133000184710B508F0FAFAC368BDE810409B6979
:101340001847000010B5074B1C682378062B07D1FF
:1013500003F028FF036A9847052804BF1023237071
:1013600010BD00BF1806002010B503F01BFF8368F6
:10137000BDE81040DB6A184708B503F013FF836827
:101380005B6A9847C31E5842584108BD10B50446D1
:1013900003F008FF83682046DB69BDE8104018476A
:1013A00010B503F0FFFE8368BDE810409B68184746
:1013B00010B503F0F7FE8368BDE810405B6918477D
:1013C00010B503F0EFFE8368BDE810401B691847B5
:1013D00010B503F0E7FE8368BDE810409B6C18472A
:1013E00008B52DED028BB0EE408A03F0DBFE83687A
:1013F00083ED008ABDEC028B08BD10B503F0D2FE70
:101400004368BDE81040DB6A184710B503F0CAFE18
:101410004368BDE810409B68184710B503F0C2FE52
:101420004368BDE810405B69184710B503F0BAFE89
:101430004368BDE810401B69184710B503F0B2FEC1
:101440004368BDE810409B6C184710B503F0AAFE36
:101450000368BDE81040DB6A184710B503F0A2FE30
:101460000368BDE810409B68184710B503F09AFE6A
:101470000368BDE810405B69184710B503F092FEA1
:101480000368BDE810401B69184710B503F08AFED9
:101490000368BDE810409B6C184710B503F082FE4E
:1014A000BDE81040436B184710B503F07BFEBDE864
:1014B0001040C36A184710B52DED028BB0EE408A7C
:1014C00003F070FEB0EE480ABDEC028B036BBDE882
:1014D0001040184710B503F065FEBDE81040436AA0
:1014E000184710B503F05EFEBDE81040C369184709
:1014F00010B503F057FEBDE81040C368184710B59B
:1015000003F050FEBDE810408369184710B503F0A2
:1015100049FEBDE810400369184710B508F006FA07
:10152000C46801F025FD836898470B2801D102208B
:1015300010BD01F0C1F9836898474207F7D4A3684A
:101540005B6A9847431E58425841F1E710B508F0CE
:10155000EDF9C46801F00CFD83689847072801D1B4
:10156000022010BD01F004FD8368984706280CD0C6
:1015700001F0A2F9836898478207F1D463685B6A37
:101580009847431E58425841EBE70320E9E710B55E
:1015900008F0CCF9C46801F0EBFC8368984709288F
:1015A00001D1022010BD01F0E3FC836898470828B0
:1015B0000CD001F081F983689847C207F1D4236801
:1015C0005B6A9847431E58425841EBE70320E9E71E
:1015D000094B1B68012210B51A7001F06DF9036800
:1015E000984704F053FB0368984701F0C1FCBDE83D
:1015F00010400368184700BF18060020074B1B68FF
:10160000002210B51A7003F0CDFD4369984701F030
:10161000AFFCBDE810400368184700BF1806002063
:1016200008B5FFF765FFBDE80840FFF7E7BF00001A
:1016300007B58DED010A01A89FED050A08F06EFFC0
:1016400003F0B0FD019A83685A6003B05DF804FBB3
:101650000000344307B58DED010A01A89FED050A8E
:1016600008F05CFF03F09EFD019A43685A6003B0E6
:101670005DF804FB0000344307B58DED010A01A8B5
:101680009FED050A08F04AFF03F08CFD019A0368FC
:101690005A6003B05DF804FB0000344310B52DED33
:1016A000028BB0EE408A03F07DFDB0EE480A9FED5C
:1016B000061ADFED060A446808F0D6FEBDEC028B80
:1016C00084ED000A10BD00BF00000C4200000CC2F7
:1016D00010B52DED028BB0EE408A03F063FDB0EE45
:1016E000480A9FED061ADFED060A046808F0BCFE02
:1016F000BDEC028B84ED000A10BD00BF0000F0427B
:10170000000048C22DE9F0412DED028B08F00EF9E2
:101710009A4FC56808F00AF93C6886682378102B50
:1017200027D8DFE813F011002A0039004500260011
:1017300026008A005001260026006301630126006E
:101740005D016301630163012B68DB6898476B6887
:10175000DB6806469847AB68DB68074698473E4318
:10176000304380B2002814BF0323012323700023D9
:101770006370BDEC028BBDE8F0810123637001F062
:101780009BF8C36898470A2802D102232370F0E728
:101790000B28EED10D23F9E704F078FA4368984757
:1017A0000C2801D10323F1E70D28E2D10F23EDE747
:1017B00001F0DEFB43689847052838D1736B9F68BA
:1017C00003F0F0FC0568B84785ED000A03F0EAFC79
:1017D000036800255D60B36BD3F8088003F0E2FC7A
:1017E0004768C04787ED000A03F0DCFC43685D6092
:1017F000F36B9F6803F0D6FC8668B84786ED000A55
:1018000003F0D0FC83685D606378012B0DD1002567
:10181000657003F0C7FC83680220DB69984717F006
:101820005BFB436898472570A3E70623AEE70638BD
:10183000C0B205289DD80E23A8E708F077F8C6683F
:1018400008F074F83C688568A378013B062B90D8B3
:10185000DFE803F00419486E859AB70008F066F8CF
:1018600003685B6804F110001B6898476B6B9B680A
:101870009847AB6B84ED020A9B689847022384ED7E
:10188000030A638075E708F051F803685B6804F1A8
:1018900010009B689847B0F5FA6F02D90323A37034
:1018A00067E76B6B9B689847D4ED027AAB6B30EEC1
:1018B000678A9B689847DFED327A94ED037AB0EE41
:1018C000C88AB4EEE78AF1EE10FA09DC30EE470A76
:1018D000B0EEC00AB4EEE70AF1EE10FA7FF749AFB6
:1018E0000123DCE73368DFED278A9B6A98476B6B3F
:1018F00008EE100A9B689847B8EEC88AA0EE688A7E
:10190000BCEEC88A18EE103AA38073689B6A9847A9
:10191000AB6B08EE100A9B689847B8EEC88AA0EE39
:10192000688ABCEEC88A18EE103AE3800423B6E752
:1019300007F0FCFF0569B4F904106B682220984792
:101940006B68B4F906102320984707F0EFFF03688F
:101950005B6804F110001B68984705239FE707F0B8
:10196000E5FF03685B6804F110009B689847B0F5D9
:101970007A7FFFF4FEAE062391E700BF1806002031
:10198000CDCC4C3E610B364307F0D0FF06692220D8
:10199000B3689847B368054623209847A388ADB23B
:1019A000AB4203D1E38880B2834208D0E378092BAD
:1019B0008CBF082204220133A270E370D9E607230A
:1019C0006DE700236BE707F07FFB43689847032828
:1019D0007FF4CFAE17F080FA436898470023D5E62E
:1019E0006B69BDEC028BBDE8F04118472B69F8E745
:1019F000014B1868704700BF140600202DE9F04124
:101A000007F094FF0368514F1C68514D07F08EFF9B
:101A100003680121D3F80880A36814209847A368BD
:101A20003860012154209847A368286006460121A8
:101A300038209847A3683060012138202E689847E5
:101A4000A3687060012138202E689847B06007F0C5
:101A50006DFFC36900201B6898472B683D4ADA6018
:101A60003D4A9A613D4A1A623D4A5A613D4ADA61ED
:101A70003D4ADA633D4A1A633D4A1A613D4ADA62D9
:101A80003D4A5A633D4A9A633D4A1A643D4A5A6444
:101A90003D4ADA643D4A9A643D4A1A651A683D49EE
:101AA00051623D4911633D49D1623D4991613D49D2
:101AB000D1613D4991603D4911603D4951635A688A
:101AC0003C4951623C4911633C49D1623C499161B6
:101AD0003C49D1613C4991603C4911609B683C495B
:101AE00051633C4A5A623C4A1A633C4ADA623C4AB5
:101AF0009A613C4ADA613C4A9A603C4A1A613C4A23
:101B00005A613C4A5A603C4A1A603C4A5A6303F0A4
:101B10004FFB3B6800245C7000F0D4FE00F0CCFE6C
:101B2000374B03613B689C7004F0B6F801F026FA6D
:101B300007F0D0FAD8F8083032482146984707F025
:101B4000F5FE8368304A1A63BDE8F081180600206C
:101B500014060020D91200080D150008FF14000813
:101B6000F1140008FD150008E3140008D115000861
:101B70003313000823130008E5120008F5120008CB
:101B800001130008D5140008B7140008A9140008B0
:101B90009B14000879160008D11600088B14000861
:101BA0007B1400086B1400085B1400084B14000839
:101BB0008F150008551600089D1600083B140008F4
:101BC0002B1400081B1400080B140008FB1300085A
:101BD0004D15000831160008E1130008D113000864
:101BE000C1130008B1130008A11300088D130008E9
:101BF0007913000811130008691300081B15000869
:101C0000211600080517000845130008014B1B6842
:101C10005879704720060020024B1B6802221A7078
:101C2000704700BF20060020014B1B6818787047E2
:101C3000200600202DE9F04F2DED028B85B007F036
:101C400075FE0368A04C5D6807F070FED0F8088050
:101C500007F06CFE2668C76896F80090B9F1090F86
:101C60003BD8DFE819F00A000D002D0040001302F8
:101C70008F02C005E105EC051B06012333702CE043
:101C8000D8F854309847D8F850309847012824D1D4
:101C90003B68DB6898477B68DB6805469847BB680C
:101CA000DB688146984745EA090504462C43D8F885
:101CB0005830A4B29847002C40F0ED850223DDE7B0
:101CC000D8F854309847D8F850309847012804D1B4
:101CD000D8F85830984703233360307805B0BDEC0E
:101CE000028BBDE8F08F07F021FE0368D3F8049063
:101CF00007F01CFED0F808A007F018FE2468C5689D
:101D000063780B2B00F2BA81DFE813F00C001400AB
:101D100058006700A300E4001301AA018F00AC0182
:101D2000B4018F00D9F8003004F114009847012362
:101D300063707AE004F11407D9F808303846984700
:101D4000B0F57A7F1FD207EE900AB8EEE78ADFED92
:101D50005F7A28EE278A07F0E9FDC5682B68B0EEA8
:101D6000480ADB69002098476B68B0EE480ADB69D7
:101D700000209847AB68B0EE480ADB69002098471E
:101D8000EB68984751E02B68D4F818809B6A984715
:101D90006B68A8F802009B6AD4F81C809847AB686F
:101DA000A8F802009B6AD4F820809847D9F8003040
:101DB000A8F80200384698470223B9E704F1140551
:101DC000D9F8083028469847B0F57A7F2DD9D9F848
:101DD0000030284698470323AAE72B689B6A984758
:101DE0006B689B6A80469847AB689B6A0746984732
:101DF000D4E906C5BCF802E06988A8EB0E0EBEF176
:101E0000000F0346B8BFCEF1000E206ABEF1140FDA
:101E1000428810DDACF802806F804380022363703B
:101E2000D9F8003004F1140098476378082B40F08B
:101E30002781042322E7791A0029B8BF49421429CF
:101E4000E8DC9A1A002AB8BF5242142AE2DC0423C2
:101E5000E5E7A2692B6850889B689847E2696B6840
:101E600050889B689847226AAB6850889B6898475F
:101E70002B68A7699B6A98476B6878809B6AE769BB
:101E80009847AB6878809B6A276A9847DAF83430BD
:101E900078809B68A5699847DAF8383085ED010AA3
:101EA0009B68E5699847DAF83C3085ED010A9B6844
:101EB000256A9847D9F8003085ED010A04F114002D
:101EC0009847052334E700BF2006002017B7513A92
:101ED0000000B44204F11405D9F8083028469847A8
:101EE000B0F5FA6F1FD207EE900AFAEEEF7AFDEE28
:101EF000E77A17EE905A07F019FDC7681FED0C0A34
:101F00003B682846DB6998477B681FED0F0ADB6951
:101F1000A5F1C8009847BB681FED130ADB69284686
:101F20009847FB682DE7D9F80030284698470623E4
:101F3000FEE607F0FBFC4368DB6801932B689B6AB5
:101F400098476B689B6A80469847AB689B6A0746D0
:101F50009847A2695388E269A8EB03085388226A6C
:101F60005288A0EB020BDAF838209268FF1A9047EB
:101F7000E269D2ED017ADAF83C2030EE670A926825
:101F80008DED020A9047226AD2ED017A30EE670A9F
:101F900002A88DED030A08F05BF803A808F058F8D2
:101FA00018F5004FB8BF08F5803817F5004FB8BFD7
:101FB00007F58037A8F5FA781BF5004FB8BF0BF589
:101FC000803BB8F57A7F8ABF012200226271A7F5B3
:101FD000FA778ABF0A2262716270B7F57A7F05D9F3
:101FE000627942F0020262710A226270AA68126883
:101FF000904701280AD1ABF5FA70B0F57A7F05D980
:10200000637943F0040363710A236370DDED027AA0
:10201000F5EEC07AF1EE10FA05D507F087FCC3693A
:1020200001201B689847AB681B6898470128054644
:1020300010D1DDED037AF5EEC07AF1EE10FA09D594
:1020400007F074FCC36928461B689847019BA048A9
:102050009B6898476378062B7FF4E2AE0723DEE6A1
:10206000082365E69B4B1B689B690BB16079984719
:102070000B235DE6974B1B685B69F6E76B6980E6AF
:10208000093B022B3FF629AE0B23F7E507F04EFC88
:1020900003685D6807F04AFCD0F8088007F046FC4A
:1020A0002468C768A378012B0DD0022B3DD02BB933
:1020B0002B6804F1140098470123A370A378032B25
:1020C0005CD10523DAE5D8F838309B689847DFED16
:1020D000827A60EE677A40F2DC51FDEEE77A03A87F
:1020E000B0EE408ACDED037A08F027FA7B689FEDC9
:1020F0007D0A5B6903989847B0EEC88AF7EE007ACC
:10210000B4EEE78AF1EE10FA04F1140704D52B6857
:10211000384698470223A370AB683846984742F286
:1021200010739842CAD90423C7E7D8F834309B68A3
:102130009847DFED697A60EE677A40F2DC51FDEE98
:10214000E77A03A8B0EE408ACDED037A08F0F5F9FE
:102150003B689FED640A5B6903989847B0EEC88AB4
:10216000F7EE007AB4EEE78AF1EE10FA04F1140704
:10217000D2D52B68384698470323CCE7042B7FF44D
:10218000ACAD81E707F0D2FB03685F6807F0CEFBD8
:10219000C56807F0CBFB2468D0F81C80E3780F2BD0
:1021A00000F21E81DFE813F010002C004500A000B3
:1021B000EA002A012E0146019301DE0117022802DE
:1021C00049029702E2021B03AB689FED440ADB69F8
:1021D000002098472B68A7695B6B98476B6887ED71
:1021E000010A5B6BE7699847AB6887ED010A5B6B97
:1021F000276A9847002387ED010A238101234CE0D9
:102200003B6804F114009847228900230132C4E995
:102210000333A37193B212B2C82A228101DD1123C4
:102220003BE003EB43035B0003F548736381022348
:1022300033E004F1140BBB6958469847A369D5F8FD
:10224000009093ED018AEB68824698476089D9F83F
:1022500014309FED240A40429847214B9A451ED8DE
:10226000D9F83430984730EE480A03A88DED030AB8
:1022700007F0EEFE9DED037AFFEE087AB4EEE77A02
:10228000F1EE10FA40F1AC80A379012B08BFC4F83D
:102290000CA03B68584698470323E370A0E0D9F8A8
:1022A0000C309847D8F8043005469847012807D0E5
:1022B000012305EB0310D9F8083080B298479DE759
:1022C000D9F8043098470128F2D14FF0FF33F0E7F6
:1022D00040D101081C06002000002F44000000002F
:1022E0007F1A06006666663F04F1140BBB69584608
:1022F0009847A369D5F8009093ED018AEB68824670
:102300009847D9F814301FED090A60899847B74BF0
:102310009A451ED8D9F83430984730EE480A03A8B9
:102320008DED030A07F094FE9DED037AF7EE087A2F
:10233000B4EEE77AF1EE10FA52DD3B685846984762
:10234000A37923B90123C4F810A0A3716FE7042374
:10235000A3E7D9F80C309847D8F8043005469847D9
:10236000012803D00123A5EB0310A4E7D9F804301A
:1023700098470128F6D14FF0FF33F4E7D4E903730F
:10238000D5F800B0FF1ADBF80C309847D8F80430C5
:1023900082469847012829D001204FF4FA62002391
:1023A00087FB0001FEF75EFD2021039003A808F0E3
:1023B000C4F8039B0AEB03002B6880B29B68984724
:1023C00040F2CF72FB17BF1840F69F7243F1000333
:1023D000974273F1000328BF4FF0010984F803907E
:1023E000E378102B40F0FD81062347E4DBF804304E
:1023F00098470128D0D14FF0FF30CEE7002323814A
:1024000006234AE73B6804F1140098472289002319
:102410000132C4E90333A37193B212B2C82A2281F4
:102420003FF7FDAE03EB43035B0003F548736381A5
:10243000072332E704F1140BBB6958469847E36958
:10244000D5F8049093ED018AEB688246984760893D
:10245000D9F814309FED670A40429847634B9A457C
:102460001CD8D9F83430984730EE480A03A88DEDCF
:10247000030A07F0EDFD9DED037AFFEE087AB4EE56
:10248000E77AF1EE10FAABD5A379012B08BFC4F8B7
:102490000CA03B68584698470823FEE6D9F80C3054
:1024A0009847D8F8043005469847012807D00123FB
:1024B00005EB0310D9F8083080B29847A0E7D9F8A7
:1024C000043098470128F2D14FF0FF33F0E704F1D0
:1024D000140BBB6958469847E369D5F8049093ED0F
:1024E000018AEB6882469847D9F814309FED410A7B
:1024F000608998473D4B9A451FD8D9F834309847A2
:1025000030EE480A03A88DED030A07F0A1FD9DED0A
:10251000037AF7EE087AB4EEE77AF1EE10FA7FF775
:102520005FAF3B6858469847A37923B90123C4F8A5
:1025300010A0A3717CE70923AFE6D9F80C309847C7
:10254000D8F8043005469847012803D00123A5EBAD
:102550000310AFE7D9F8043098470128F6D14FF0BF
:10256000FF33F4E7D4E90373D5F804A0FF1ADAF8CF
:102570000C309847D8F8043081469847012822D07B
:1025800001214FF4FA62002387FB0101FEF76AFC88
:102590002021039003A807F0D0FF039B09EB030061
:1025A0006B6880B29B68984740F2CF72FB17BF18E8
:1025B00040F69F7243F10003974273F10003BFF4AA
:1025C0001FAF0A2369E6DAF8043098470128D7D10B
:1025D0004FF0FF31D5E7AB68276A5B6B9847002364
:1025E00087ED010A23810B2357E600BF7F1A0600FF
:1025F00000007A446666663F3B6804F11400984721
:102600000023C4E90333A371238901331BB2C82B10
:1026100023813FF704AE03EB43035B0007EE903AE0
:102620001FED0D7AF8EEE77A77EE877AFCEEE77A1F
:1026300017EE903A63810C232FE604F1140BBB696B
:1026400058469847236AD5F8089093ED018AEB68BD
:10265000824698476089D9F814301FED1A0A404223
:102660009847924B9A451DD8D9F83430984730EEA8
:10267000480A03A88DED030A07F0EAFC9DED037AF2
:10268000FFEE087AB4EEE77AF1EE10FA7FF5A8AE25
:10269000A379012B08BFC4F80CA03B6858469847A3
:1026A0000D23FAE5D9F80C309847D8F804300546E0
:1026B0009847012807D0012305EB0310D9F808300B
:1026C00080B298478FE7D9F8043098470128F2D1B3
:1026D0004FF0FF33F0E704F1140BBB6958469847FD
:1026E000236AD5F8089093ED018AEB6882469847F3
:1026F000D9F814309FED6E0A608998476B4B9A4564
:102700001FD8D9F83430984730EE480A03A88DED29
:10271000030A07F09DFC9DED037AF7EE087AB4EE0C
:10272000E77AF1EE10FA7FF75BAE3B6858469847C0
:10273000A37923B90123C4F810A0A3717BE70E236A
:10274000ABE5D9F80C309847D8F8043005469847DF
:10275000012803D00123A5EB0310AFE7D9F804301B
:1027600098470128F6D14FF0FF33F4E7D4E903731B
:10277000D5F808A0FF1ADAF80C309847D8F80430DA
:1027800081469847012822D001214FF4FA620023A4
:1027900087FB0101FEF766FB2021039003A807F0E9
:1027A000CCFE039B09EB0300AB6880B29B689847A3
:1027B00040F2CF72FB17BF1840F69F7243F100033F
:1027C000974273F10003BFF40EAF0F2365E5DAF80B
:1027D000043098470128D7D14FF0FF31D5E71023B7
:1027E0005BE5112BCBE407F0A1F83B680469DB68DB
:1027F000D4F80480984701B23120C0477B68D4F8F0
:102800000480DB68984701B20620C047BB68646853
:10281000DB68984701B23B20A0472B6806F1140003
:1028200098470723FFF72ABAAB6806F114009847C8
:10283000B0F57A7FFFF451AA0823FFF71FBA07F01B
:1028400075F804693120A3689847A368804606207C
:102850009847A36805463B2098473B68DB680446D9
:1028600098471FFA88F1884209D033790A2B34BF80
:1028700006220B22013332703371FFF72EBA7B68C8
:10288000DB689847AAB29042EFD1BB68DB689847F3
:10289000A3B29842E9D10923FFF7F0B9054B1B68B1
:1028A0001B6903B198470A23FFF7E8B97F1A0600AE
:1028B0006666663F1C060020014B1868704700BF23
:1028C0001C060020F8B507F031F80368144F1C68A7
:1028D000144EA36801211C209847A3683860012189
:1028E00024209847A36830600546012108209847B6
:1028F000A368A8610121082035689847A368E861AA
:1029000001210820356898473B68074A28625A60C9
:10291000064A1A60064ADA60064A9A60F8BD00BFA5
:102920001C06002020060020291C0008191C000895
:10293000351C00080D1C0008024B1B6800221A7091
:10294000704700BF28060020014B1B6818787047AD
:10295000280600202DE9F0472DED028B82B00446B9
:10296000B0EE408A06F0E2FF0368D3F804A006F058
:10297000DDFFD0F8088006F0D9FF2578C768D4F8C5
:1029800010903DB1012D31D0207802B0BDEC028B0A
:10299000BDE8F087D8F854309847D8F850309847B9
:1029A00001280646F0D1D8F85830984704F10C00B9
:1029B000DAF800309847FB6898473B68B6EE000AA3
:1029C0005B69284698477B68B6EE000A5B69284633
:1029D0009847BB68B6EE000A5B6928469847D9F865
:1029E0000C30984784ED028A2670CDE7DAF808307B
:1029F00004F10C009847D4ED027A78EE677AB0EED5
:102A0000007A77EEC77A054601A8CDED017A07F086
:102A10001FFB9DED010AD9F82830F1EE007A20EE77
:102A2000670A9847DDED017A9FED0F7AF0EEE77ABD
:102A3000F4EEC77AD4ED027A38EE678AF1EE10FA36
:102A4000F9EE007A48BF0423B4EEE78A48BF23704A
:102A5000F1EE10FA44BF0523237040F6B8339D42CF
:102A600084BF062323708FE7CDCC4C3E2DE9F84F71
:102A7000614D2DED048B2C682378042B11D8DFE8F1
:102A800013F0050015000C022D024402A268012378
:102A900023700023137022691370E2681370626957
:102AA0001370BDEC048B2078BDE8F88F06F03EFF74
:102AB0000368D3F8048006F039FFD0F808A006F0C8
:102AC00035FF2F68C668BD682B78032B45D8DFE833
:102AD00013F004005D00A5007101DAF85430984746
:102AE00033699847DAF8503098470128814634D145
:102AF000DAF858309847381DD8F800309847F3680E
:102B000098473368B6EE000A5B69002098477368FF
:102B1000B6EE000A5B6900209847B368B6EE000A7B
:102B20005B690020984700237B7002F03BFB436801
:102B30001B699847DFED377A736820EE270A9B6A96
:102B4000BDEEC00A85ED010A9847688002F02AFBB5
:102B50000368DB68984785F800902B78043B082BC6
:102B60009FD801A252F823F0512E0008A32A000892
:102B7000A32A0008FD2E0008072F0008C52E000814
:102B8000C52E00084B2F0008552F00080437D8F831
:102B9000083038469847064602F004FB03681B6974
:102BA0009847DFED167A30EE278A02F0FBFA0368C9
:102BB000B1EE000A28EE400A9B6A9847DFED107AD2
:102BC000B0EEC88AB4EEE78AF1EE10FA0AD5D8F86A
:102BD00000303846984702F0E5FA4368DB689847CA
:102BE00002232B70B6F57A6FB7D9D8F80030384683
:102BF00098470823B5E000BF2806002000000C42DB
:102C00009A99993E0000B43BCDCC4C3E00005CC28A
:102C100000003443610B36430000C84207F1040949
:102C2000D8F808304846984773689B6A82469847A8
:102C30006B886A68C31A02FA83F307EE903A6B60F6
:102C40007368B8EEE78A5FED117A9B6A28EE278AEF
:102C50009847688002F0A6FA4368B1EE009A9B6A32
:102C600028EE490A98475FED187AB0EEC87AB4EEBC
:102C7000E77AF1EE10FAF0EE408A0AD5D8F8003083
:102C80004846984702F08EFA0368DB6898470323AA
:102C90002B70B0EEE80AB4EEC90AF1EE10FA37DD97
:102CA00006F044FEC3695B68984701285BD133682E
:102CB0005B689847002856D15FED2C7AB4EEE78A1E
:102CC000F1EE10FA24DDFAEE0E7AB4EEE78AF1EEB8
:102CD00010FA1DD5D8F800304846984702F062FA3D
:102CE00043681B6998475FED367A30EE270A5FED3F
:102CF000377A20EE270ABDEEC00A85ED010A736817
:102D00009B6A9847688002F04DFA4368DB689847F1
:102D100002F048FA43681B6998475FED417AB0EECC
:102D2000C00AB4EEE70AF1EE10FA14DD06F0FEFD7B
:102D3000C3695B689847012839D133685B68984755
:102D4000A8BB854B6B6073689B6A984701236880BA
:102D50007B7004232B7041F270739A457FF6FDAEB1
:102D60000A232B70F9E6F2EE0E7AB4EEE78AF1EE62
:102D700010FACDDDDFED797AB4EEE78AF1EE10FAE4
:102D8000C6D5D8F800304846984702F00BFA436899
:102D90001B699847DFED727A9FED727A77EEC07A01
:102DA00067EEC77AFDEEE77AC5ED017AA7E747F649
:102DB000F873C7E707F1040BD8F80830584698476E
:102DC000814602F0EFF903681B699847B0EE408A2C
:102DD00002F0E8F90368B1EE000A28EE400A9B6AA7
:102DE0009847DFED617AB0EEC88AB4EEE78AF1EE7B
:102DF00010FA22D5D8F8003058469847DAF834301F
:102E00001B6A9847DFED597AB4EEE70AF1EE10FA43
:102E10001CDD06F08BFDC3695B689847012812D161
:102E200033685B68984770B94B4B6B6073689B6AFB
:102E30009847012368807B702B7040F6B833994522
:102E40007FF68BAED5E647F6F873EEE70423F3E79B
:102E50006578012D12D106F069FDC3695B6898475A
:102E600078B906F063FDC36928461B68984702F0ED
:102E700099F943681B6A6FF0B300984703232370E6
:102E80000FE606F053FDC36900201B68984702F067
:102E900089F9436800201B6AEFE706F047FDC36924
:102EA0005B689847022825690ED006F03FFD8368CD
:102EB0009B6B9B6898472846FFF74CFD0428DDD0A4
:102EC000052806D10623DAE706F030FD8368DB6BC0
:102ED000EFE706287FF4E5AD0723D0E7E56806F0C5
:102EE00025FD83685B6B9B6898472846FFF732FD9A
:102EF000042801D12070D4E5052801D10823BEE7BC
:102F000006287FF4CEAD0923B9E706F00FFDC369AB
:102F10005B689847022865690CD006F007FD836856
:102F2000DB6B9B6898472846FFF714FD04280AD1FD
:102F30000523A4E706F0FAFC83689B6B9B6898471F
:102F4000B1EE400AEFE7052801D10A2397E70628EA
:102F50007FF4A7AD0B2392E70880FFFF00005C42DF
:102F60000000B443610B3643CDCC4C3E000002431D
:102F7000014B1868704700BF2406002070B506F0AA
:102F8000D5FC03681D4E1D6806F0D0FCAB6801211E
:102F90000C209847AB683060012118209847184BE7
:102FA000044618600121AB6814209847AB68A06004
:102FB000012114209847E06002F0F4F8E368026809
:102FC0001A610121AB6814209847206102F0EAF8E9
:102FD000236942681A610121AB6814209847606137
:102FE00002F0E0F8636982681A613368054A1A6082
:102FF000054A9A60054A5A6070BD00BF2406002049
:103000002806002039290008492900086D2A0008EF
:10301000024B1B6801225A70704700BF3006002027
:10302000024B1B6800225A70704700BF3006002018
:10303000024B1B6801221A70704700BF3006002047
:10304000024B1B6803221A70704700BF3006002035
:10305000024B1B68DB6983ED090A704730060020CC
:10306000024B1B68DB6983ED0B0A704730060020BA
:10307000024B1B68DB6993ED090A7047300600209C
:10308000024B1B68DB6993ED0B0A7047300600208A
:10309000024B1B681B6A83ED090A7047300600204B
:1030A000024B1B681B6A83ED0B0A70473006002039
:1030B000024B1B681B6A93ED090A7047300600201B
:1030C000024B1B681B6A93ED0B0A70473006002009
:1030D000024B1B685B6A83ED090A704730060020CB
:1030E000024B1B685B6A83ED0B0A704730060020B9
:1030F000024B1B685B6A93ED090A7047300600209B
:10310000024B1B685B6A93ED0B0A70473006002088
:10311000084A12680346507950B1D269926C0BB1DB
:103120001069186009B90120704753690B60FAE70C
:10313000704700BF30060020084A126803465079E5
:1031400050B1126A926C0BB11069186009B9012074
:10315000704753690B60FAE7704700BF30060020E4
:10316000084A12680346507950B1526A926C0BB10A
:103170001069186009B90120704753690B60FAE7BC
:10318000704700BF30060020034B1B68DB699B6C57
:103190000122D8789A70704730060020034B1B68D4
:1031A0001B6A9B6C0122D8789A7070473006002009
:1031B000034B1B685B6A9B6C0122D8789A7070473E
:1031C00030060020024B1B68DB69586C704700BF5B
:1031D00030060020024B1B681B6A586C704700BF0A
:1031E00030060020024B1B685B6A586C704700BFBA
:1031F00030060020024B1B68DB6993ED070A70471D
:1032000030060020024B1B689B6A93ED050A70474D
:1032100030060020024B1B689B6A93ED060A70473C
:1032200030060020024B1B689B6A5868704700BF3D
:1032300030060020024B1B689B6A00221A70704700
:1032400030060020024B1B689B6A1878704700BF4D
:1032500030060020024B1B681B6A93ED070A70477B
:1032600030060020024B1B68DB6A93ED050A7047AD
:1032700030060020024B1B68DB6A93ED060A70479C
:1032800030060020024B1B68DB6A5868704700BF9D
:1032900030060020024B1B68DB6A00221A70704760
:1032A00030060020024B1B68DB6A1878704700BFAD
:1032B00030060020024B1B685B6A93ED070A7047DB
:1032C00030060020024B1B681B6B93ED050A70470C
:1032D00030060020024B1B681B6B93ED060A7047FB
:1032E00030060020024B1B681B6B5868704700BFFC
:1032F00030060020074B1B681B6B10B901221A70A7
:103300007047012801D10222F9E70228F8D10022F2
:10331000F5E700BF30060020024B1B681B6B1878D6
:10332000704700BF30060020024B1B680022DA7095
:10333000704700BF30060020024B1B6893ED030A64
:10334000704700BF30060020024B1B68DB6993ED1D
:103350000C0A704730060020024B1B6893ED040AEC
:10336000704700BF30060020024B1B6883ED020A45
:10337000704700BF30060020024B1B68DB6993EDED
:10338000030A704730060020024B1B681B6A93ED4E
:10339000030A704730060020024B1B685B6A93EDFE
:1033A000030A7047300600202DE9F0472DED028B0F
:1033B00006F0BCFAC46806F0B9FA03691E6806F0A4
:1033C000B5FA8A4B1F68D7F8288098F80030B3B94F
:1033D000032388F80030D7F82C8098F80030002BB1
:1033E0004FD1032388F800303D6B2B78032B00F27C
:1033F0009E80DFE813F08800A000B900BB00032B1B
:10340000E9D12368DB6A98470128E4D123689B6AE5
:103410009847B36882462220984723689B6B85B201
:10342000984723685B68814698470128D8F8083098
:103430009FED6F7ADFED6F6A15BFAAEB0505A5EB6F
:103440000A052DB22DB21D442DB207EE905AF8EEAA
:10345000E77A08BFC9F1000967EE877A4B44C8EDE7
:10346000057A07EE903AF8EEE77A2368C8F8045038
:1034700067EEA67A1B6B67EE877AC8ED067A9847E7
:10348000A9E7032BB0D16368DB6A98470128ABD169
:1034900063689B6A9847B3688246232098476368AD
:1034A0009B6B85B2984763685B68814698470128A3
:1034B000D8F808309FED4E7ADFED4E6A15BFAAEBC3
:1034C0000505A5EB0A052DB22DB21D442DB207EE60
:1034D000905AF8EEE77A08BFC9F1000967EE877ADB
:1034E0004B44C8ED057A07EE903AF8EEE77A636848
:1034F000C8F8045067EEA67A1B6B67EE877AC8EDB2
:10350000067A984770E7A3689B6A984778B1B368D2
:1035100042209847A3689B6A06469847A368801B89
:1035200000B29B6A68609847688003232B70BDECEB
:10353000028BBDE8F08747F6DC036B60A3689B6AEB
:103540009847A36868805B6898476B689FED287A06
:10355000012808BF5B4207EE903AF8EEE77A67EE83
:10356000877AC5ED057AE0E7234BE6E7A368DB6AD7
:1035700098470128DBD1A3689B6A9847A3686E88A7
:103580009B6B0746861B98476B686F8036B2334447
:103590006B60A3685B6808EE100A98470128DFEDAE
:1035A000146A6B68B8EEC87A17D15B4207EE903A9E
:1035B000F8EEE77A9FED116A67EEA67ABDEC028B12
:1035C00027EE067AA368C5ED057A67EE266A1B6BBF
:1035D000C5ED066ABDE8F047184707EE903AF8EEE9
:1035E000E77A9FED046A67EEA67AE7E730060020E7
:1035F0000000B43B000048432487FFFF000048C39D
:103600002DE9F0412DED028B06F090F9444B1D6839
:10361000EB78012B7FD0D5F81C80D8F848305B7848
:10362000002B78D02F6ABB6C5B78002B73D06E6A4E
:10363000B36C5B78002B6ED004699FED3A8A6368A7
:1036400001211B209847D8F84830D3ED047A6368ED
:1036500067EE887A1A20FDEEE77A17EE902A11B20B
:103660009847BB6CD3ED047A636867EE887A542080
:10367000FDEEE77A17EE902A11B29847B36CD3EDBE
:10368000047A636867EE887A5520FDEEE77A17EED4
:10369000902A11B29847D8F84830D3ED057A63687C
:1036A00067EE887A5620FDEEE77A17EE902A11B27F
:1036B0009847BB6CD3ED057A636867EE887A57202C
:1036C000FDEEE77A17EE902A11B29847B36CD3ED6E
:1036D000057A636867EE887A5820FDEEE77A17EE80
:1036E000902A11B2984701236B71D8F84810BA6C30
:1036F000D1F8A4500B69D2F8A4406B6013696360E1
:10370000B36C4969D3F8A4001E6952695B694660CD
:10371000A960A2608360BDEC028BBDE8F08100BFB0
:103720003006002000007A4410B506F0FFF8074B81
:103730001B681C6B03685B6804F120001B689847DA
:10374000002323616369E36010BD00BF30060020E1
:1037500010B506F0EBF8074B1B68DC6A03685B6882
:1037600004F120001B689847002323616369E3602C
:1037700010BD00BF3006002010B506F0D7F8074B8B
:103780001B689C6A03685B6804F120001B6898470B
:10379000002323616369E36010BD00BF3006002091
:1037A000F8B51C4B1D68EB699B6CD3F8A4402B6AE1
:1037B0009B6CD3F8A4706B6A9B6C2DED028BD3F8D5
:1037C000A460B0EE408A06F0CEFE01281FD1D4EDF1
:1037D000027A85ED048A78EE086AB0EE007AE6EEA9
:1037E000877A28EE088AC4ED097AD7ED027A84ED4B
:1037F0000A8AE6EE877A87ED0A8AC7ED097AD6ED5E
:10380000027AA36AB362E6EE877AC6ED097ABDEC66
:10381000028BF8BD300600202DE9F0412DED028B22
:1038200006F084F8334B9FED348A1B6804695D6AA7
:10383000D3E9077697ED090A80EE080A18F08CFEA6
:1038400063680220BDEEC00A10EE102A11B298473C
:10385000DFED2A7A97ED0B0A80EE270A18F07CFE3E
:1038600063680B20BDEEC00A10EE102A11B2984713
:1038700096ED090A80EE080A18F06EFE63680520CE
:10388000BDEEC00A10EE102A11B29847DFED1C7A87
:1038900096ED0B0A80EE270A18F05EFE63680C2096
:1038A000BDEEC00A10EE102A11B29847DFED157A6E
:1038B00095ED090A80EE270A18F04EFE636808208D
:1038C000BDEEC00A10EE102A11B2984795ED0B0A12
:1038D000DFED0D7A80EE270A18F03EFEBDEC028B7C
:1038E00063680D20BDE8F041BDEEC00A10EE102A5D
:1038F00011B2184730060020CDCC8C3F00007A432F
:10390000008088436666C63F00007F43464B70B523
:103910001C68E369D3ED0C7AF5EEC07AF1EE10FA8B
:103920002DED028B4FF000052CD85D61236AD3ED9D
:103930000C7AF5EEC07AF1EE10FA3DD85D61636A5B
:10394000D3ED0C7AF5EEC07AF1EE10FA4ED85D6147
:10395000E369186D18B1426893ED050A9047236A30
:10396000186D18B1426893ED050A9047636A186DA7
:10397000002855D0BDEC028B426893ED050ABDE8E6
:103980007040104777EEA77AB7EE007AF6EE006A3D
:10399000B0EE470AA7EEA60A94ED038A87EE000A66
:1039A00006F0FBFBE36928EE008ADFED207A28EEC3
:1039B000278A83ED058AB9E777EEA77AB7EE007A12
:1039C000F6EE006AB0EE470AA7EEA60A94ED038A67
:1039D00087EE000A06F0E1FB236A28EE008ADFED9D
:1039E000137A28EE278A83ED058AA8E777EEA77A6F
:1039F000B7EE007AF6EE006AB0EE470AA7EEA60A26
:103A000094ED038A87EE000A06F0C7FB636A28EE8E
:103A1000008ADFED067A28EE278A83ED058A97E78C
:103A2000BDEC028B70BD00BF3006002083F9A23EC2
:103A3000064B1B68DA6982ED0C0A1A6A5B6A82ED32
:103A40000C0A83ED0C0AFFF761BF00BF30060020AF
:103A5000F8B5104B1B68D3E907655C6AB06CA26CC3
:103A6000A96C0127DF70002303700B7013704FF0F7
:103A70007F5333632B632363FFF748FF064B074AEB
:103A80007362F2626B62064BEB62064B6362064B3B
:103A9000E362F8BD300600200000B04100409C45C4
:103AA00000A0AA450000F84100609F4538B50446D3
:103AB0002DED028BB0B3856CEB78012B32D0D0EDBD
:103AC0000E6A90ED0D7A224B82681B689FED218A69
:103AD000596AC6EE877A8142C5ED0B7AD2ED007A3B
:103AE000426867EE887AC5ED0C7A1ED092ED000A26
:103AF00020EE080A06F044FB636885ED0D0A93ED9D
:103B0000000A20EE080A06F039FBA36885ED0E0ACC
:103B100093ED000A06F027FD07EE900AF8EEE77A2B
:103B2000C5ED0F7ABDEC028B38BD196BD1ED057A6E
:103B300027EE887A85ED0D7A92ED000A93ED027AF0
:103B400030EE470A30EE670A20EE080ADDE700BFD4
:103B50003006002035FA8E3C2DE9F04F2DED028B1A
:103B60000646CDB040B3846CE378012B24D0257891
:103B7000B7EE008A2DBB904BA361904BE3615C22B2
:103B800029466570E57025626562A56204F144000E
:103B900016F044FD8A4BA3658A4B2367C4F888302E
:103BA000894BC4F8A03084ED108A3046FFF77EFFC1
:103BB0000123A5602370A5704DB0BDEC028BBDE85C
:103BC000F08F04F14003DFF808A207931AAB04F169
:103BD0002C084FF005191846DFF8F8B1CDF8189009
:103BE00064220021CDE904A8CDF808B0CDF80C80FE
:103BF00016F014FD10AD15AFCDE908901422002188
:103C0000284616F00BFD14220021384616F006FD5A
:103C100033AB18466422002116F000FD0AAACDE954
:103C20000E9002A906A8CDE90CA7CDE90AB505F0CA
:103C30003FFD0CAA06A904A805F03AFD0EAA0CA99E
:103C40000AA805F035FD4FF000096B4605223846FD
:103C50004146CDF8009005F0ABFADDED007A77EE45
:103C6000887A08A9C8EE278A06A804F11807CDEDBE
:103C7000007AB0EE680A05F087FD0EA9B0EE680A7A
:103C8000084605F081FD0EAA114606A805F0B6FD0E
:103C900006A9B0EE480A0EA805F076FD306D436B1C
:103CA000984701AB394605224046B0EE408ACDF830
:103CB000049005F07DFA0AAA02A908A805F0F8FC0C
:103CC0009DED010A052238EE400A2946284605F0F6
:103CD000A9FA3A4629460523384605F023FA304624
:103CE000FFF7E4FE05F022FE436994ED060A5B68E7
:103CF00001205B6A984705F019FE436994ED070AB5
:103D00005B6802205B6A984705F010FE436994EDFA
:103D1000080A5B6803205B6A984705F007FE436961
:103D200094ED090A5B6804205B6A984705F0FEFD84
:103D3000436994ED0A0A5B6805205B6A984705F0C1
:103D4000F5FDA38800EE103A43695B68B8EE400ABF
:103D50005B6A06209847A778012F29D105212846BC
:103D600006F052FAF1EE047AB4EEE70AF1EE10FA38
:103D70001ED5D4ED067AF5EEC07AF1EE10FA17D51D
:103D8000A38801339BB2142BA3807FF615AFD6ED29
:103D90000D6A677087EEA67AE770D4ED077A84ED36
:103DA000047A9FED0A7A67EE877AC4ED057A03E715
:103DB0000023A38000E700BF00007AC40000C8C24F
:103DC000CDCCCC3D000020410000A04035FA8E3C17
:103DD00001000500050001002DE9F0412DED068BE5
:103DE00084B08DED010A05F0A1FDC76805F09EFDC8
:103DF0000368D3F8048005F099FD43685B685B684D
:103E00009847734B1A680228146B064600F0BC8072
:103E1000031F9FED708ADFED707ADBB2022B28BFA3
:103E2000B0EE678A536A656A93ED0D9AD8F8203030
:103E300004F12000984708EE900ADFED687A9FEDC4
:103E4000680AD4ED059AF8EE688A01A868EEA78A98
:103E500006F064FB9DED010A2046D0ED047AB5EE34
:103E6000C00AF1EE10FAB3EE04AA48BFE8EECA7A2F
:103E700000F1100057BFE8EE8A7AC4ED047AC4ED71
:103E8000047AF0EE400A4CBFDFED560A9FED560A69
:103E900006F012FB94ED047AD4ED037AE7EE287A6B
:103EA00003A8C4ED037A79EEE77ACDED037A06F044
:103EB000CFF89DED037AB4EECA7AF1EE10FA66DD22
:103EC000DFED4A7A79EEE77AC4ED037ADFED487ADE
:103ED000DFED488A95ED006AD5ED025AF0EEC76A2B
:103EE000E6EEA78AD5ED036AD5ED017A85ED037A72
:103EF00066EEA77AE7EE067A95ED046A94ED077A06
:103F0000C5ED046AE5EE867A95ED056A77EE867A68
:103F1000F7EE006AC5ED057AE7EE087A38EE268AF4
:103F2000F4EE668A87EE887ADFED337A84ED077ADD
:103F3000B0EEC77AF1EE10FAB4EEE77AC8BFF0EE51
:103F4000668AF1EE10FA30DD0023EB61002128468D
:103F500005F09CF9B0EE490A04F11C0006F0DEFA07
:103F6000D4ED077ABB68F1EE677AFDEEE77AB0EE42
:103F7000680A5B6917EE900A98479DED030A04B042
:103F8000BDEC068BBDE8F0819FED128A4AE7FBEE9F
:103F9000047AB4EEE77AF1EE10FA42BFDFED137A5D
:103FA00079EEA79AC4ED039A90E7022E0CD0043E56
:103FB000DFED127A9FED127AF6B2022E28BFF0EEF4
:103FC000477AC5ED077AC1E7DFED0C7AF9E700BF64
:103FD000300600200000AF430000FA43BD378635AD
:103FE00000001643000020C20000204233339F41EE
:103FF0009A99193ECDCC4C3E00004844EC51B83D56
:10400000CDCCCC3D2DE9F0412DED068B84B08DED6E
:10401000010A05F08BFCC76805F088FC0368D3F83B
:10402000048005F083FC43685B685B689847734BCA
:104030001B680428DC6A064600F0BF80052800F0F3
:10404000BF809FED6F8ADFED6F7A022808BFB0EE68
:10405000678A1B6A656A93ED0D9AD8F8203004F1DF
:104060002000984708EE900ADFED677A9FED670A17
:10407000D4ED059AF8EE688A01A868EEA78A06F0E2
:104080004DFA9DED010A2046D0ED047AB5EEC00A46
:10409000F1EE10FAB3EE04AA48BFE8EECA7A00F1D6
:1040A000100057BFE8EE8A7AC4ED047AC4ED047AB2
:1040B000F0EE400A4CBFDFED560A9FED520A06F0C3
:1040C000FBF9D4ED037A94ED047AE7EE287A03A89D
:1040D000C4ED037A79EEE77ACDED037A05F0B8FF07
:1040E000DDED036AF4EECA6AF1EE10FA6BDDDFED86
:1040F000497A79EEE77AC4ED037A9FED477ADFEDEE
:10410000477AD5ED005A95ED025AB0EEE66AF0EE28
:10411000478AE6EE278A95ED036AD5ED017AC5ED6B
:10412000036A66EE277AE6EEA57AD5ED045AD4ED59
:10413000076A85ED046AE5EE257AD5ED055A77EE36
:10414000A57AB7EE006AC5ED057AE6EE887A38EE14
:10415000068AF4EE468AC7EE886ADFED317AC4ED4E
:10416000076AF0EEE66AF1EE10FAF4EEE76AC8BF0D
:10417000F0EE468AF1EE10FA33DD0023EB61002108
:10418000284605F083F8B0EE490A04F11C0006F059
:10419000C5F9D4ED077A7B68F1EE677AFDEEE77A30
:1041A000B0EE680A5B6917EE900A98479DED030A26
:1041B00004B0BDEC068BBDE8F0819FED128A48E7A4
:1041C0009FED188A45E7FBEE047AF4EEE76AF1EE1C
:1041D00010FA42BFDFED0F7A79EEA79AC4ED039A89
:1041E0008BE7022E07D0043EDFED0F7AF6B2022EE7
:1041F00028BFB0EE677A85ED077AC0E73006002069
:104200000000FA4300002042BD3786350000164307
:10421000000020C233339F41CDCC4C3E9A99193EC9
:10422000000048440000AF43CDCCCC3D2DE9F04127
:104230002DED068B84B08DED010A05F077FBC76884
:1042400005F074FB0368D3F8048005F06FFB436846
:104250005B685B689847724B1A680228946A064646
:1042600000F0BC80031F9FED6F8ADFED6F7ADBB239
:10427000022B28BFB0EE678AD369656A93ED0D9A69
:10428000D8F8203004F12000984708EE900ADFEDBE
:10429000677A9FED670AD4ED059AF8EE688A01A85F
:1042A00068EEA78A06F03AF99DED010A2046D0EDA6
:1042B000047AB5EEC00AF1EE10FAB3EE04AA48BFD4
:1042C000E8EECA7A00F1100057BFE8EE8A7AC4ED32
:1042D000047AC4ED047AF0EE400A4CBFDFED550AD3
:1042E0009FED550A06F0E8F894ED047AD4ED037AD0
:1042F000E7EE287A03A8C4ED037A79EEE77ACDEDEC
:10430000037A05F0A5FE9DED037AB4EECA7AF1EECC
:1043100010FA66DDDFED497A79EEE77AC4ED037ACB
:104320009FED476ADFED478AD5ED036AD5ED005A68
:1043300095ED025A85ED037AF0EEC77AE7EE868AAC
:10434000D5ED017A66EEA77AE7EE257AD5ED045A27
:1043500094ED077AC5ED046AE5EE257AD5ED055AA8
:1043600077EEA57AF7EE006AC5ED057AE7EE087AF2
:1043700038EE268AF4EE668A87EE887ADFED327AA6
:1043800084ED077AB0EEC77AF1EE10FAB4EEE77A70
:10439000C8BFF0EE668AF1EE10FA30DD0023EB6163
:1043A0000021284604F072FFB0EE490A04F11C0017
:1043B00006F0B4F8D4ED077A3B68F1EE677AFDEECB
:1043C000E77AB0EE680A5B6917EE900A98479DEDB0
:1043D000030A04B0BDEC068BBDE8F0819FED118AA5
:1043E0004AE7FBEE047AB4EEE77AF1EE10FA42BF48
:1043F000DFED127A79EEA79AC4ED039A90E7022EC8
:104400000AD0043EDFED117AF6B2022E28BFF0EE9C
:10441000467AC5ED077AC3E7DFED0C7AF9E700BF0E
:10442000300600200000344300007A43BD37863553
:1044300000001643000020C20000204233339F4199
:10444000CDCCCC3DCDCC4C3E00004844EC51B83DE9
:10445000044B1A68B6234343106B40F8083F05F03D
:104460006FBE00BF30060020044B1A68B6234343DA
:10447000D06A40F8083F05F063BE00BF3006002058
:10448000044B1A68B6234343906A40F8083F05F08E
:1044900057BE00BF300600202DE9F04F2DED028BF6
:1044A00083B005F043FAA64BD0F80CA0D3F80080F7
:1044B000D8E90776D8F8245005F038FAD0F81090EB
:1044C000D9F800400920A368984707EE900AF8EE53
:1044D000E77AA368C7ED0C7A0920984707EE900A9F
:1044E000DAF80830F8EEE77A1B68C6ED0C7A9847E0
:1044F000012808D1A3680920984707EE900AF8EE32
:10450000E77AC5ED0C7AFFF701FAA3689FED8D8A73
:104510000220984707EE900AF8EEE77AA36867EE64
:10452000887A0B20C7ED097A984707EE900A9FED2D
:10453000867ADAF80030F8EEE77A1B6A67EE877A57
:10454000C7ED0B7A984707EE900ADAF80030F8EEDC
:10455000E77AD3F808B0C7ED0D7AA3683120984701
:1045600080B2D847A3680520984707EE900AF8EE76
:10457000E77AA36867EE887A0C20C6ED097A984737
:1045800007EE900A9FED717ADAF80430F8EEE77AD8
:104590001B6A67EE877AC6ED0B7A984707EE900A9A
:1045A000DAF80430F8EEE77AD3F808B0C6ED0D7A01
:1045B000A3680620984780B2D847A3680820984788
:1045C00007EE900A9FED627AA368F8EEE77A0D2075
:1045D00067EE877AC5ED097A984707EE900A9FED56
:1045E0005D7ADAF80830F8EEE77A1B6A67EE877AC8
:1045F000C5ED0B7A984707EE900ADAF80830F8EE26
:10460000E77AD3F808A0C5ED0D7AA3683B20984758
:1046100080B2D047A36818209847C0B288F8040039
:1046200058B9BB6CD3F8A4301870B36CD3F8A4306D
:104630001870AB6CD3F8A4301870A3681B2098478F
:1046400080B2012804D9D9F8043000211B209847F2
:10465000A3681B209847C0B2012888F8050040F0E5
:10466000F080A3689FED3C8A1A20984707EE900AD5
:10467000BB6CF8EEE77AD3F8A43067EE887A542062
:10468000C3ED017AA368984707EE900AB36CF8EE81
:10469000E77AD3F8A43067EE887A5520C3ED017A23
:1046A000A368984707EE900AAB6CF8EEE77AD3F868
:1046B000A43067EE887A5620C3ED017AA368984744
:1046C00007EE900ABB6CF8EEE77AD3F8A43067EEF9
:1046D000887A5720C3ED027AA368984707EE900ABC
:1046E000B36CF8EEE77AD3F8A43067EE887A5820F6
:1046F000C3ED027AA368984707EE900AAB6CF8EE18
:10470000E77AD3F8A43067EE887AC3ED027AA3681B
:10471000032098470521ADF806004FF4C8720DF14B
:10472000060005F0B4FEA36803209847BDF9061003
:10473000884213D0D9F80430032098470EE000BF18
:1047400030060020CDCC8C3F00007A4300808843A7
:104750006666C63F00007F436F12833A98F80430C4
:10476000012B61D105F0E2F898F8053000EE103A1F
:1047700043695B68B8EE400A5B6A0020984705F021
:10478000D5F898F8043000EE103A43695B68B8EE4B
:10479000400A5B6A0620984705F0C8F8BB6CD3F85E
:1047A000A420436992ED010A5B6808205B6A984780
:1047B00005F0BCF8B36CD3F8A420436992ED010A6C
:1047C0005B6809205B6A984705F0B0F8AB6CD3F8DA
:1047D000A420436992ED010A5B680A205B6A98474E
:1047E00005F0A4F8BB6CD3F8A420436992ED020A4B
:1047F0005B680B205B6A984705F098F8B36CD3F8B8
:10480000A420436992ED020A5B680C205B6A98471A
:1048100005F08CF8AB6CD3F8A420436992ED020A42
:104820005B680D205B6A9847BDF9063000EE103AD0
:10483000B8EEC00AFEF7B4FF03B0BDEC028BBDE8D2
:10484000F08FBB6CD3F8A42000231370B26CD2F8A5
:10485000A4201370AA6CD2F8A420137057E700BFED
:104860002DE9F041D0ED0B7ADFF8B48160EE277AC4
:104870002DED068B054690ED079AD8F8004017EE0F
:10488000900AF0EE408AFBF75FFEF0EEC97A06462A
:1048900017EE900A0F46FBF757FE5E4B0022FBF720
:1048A000F5FC02460B4630463946FBF7CFFFFCF7D6
:1048B0007BF995ED098A95ED087AA28828EE888A19
:1048C00007EE900A28EE078A40F201139A42A9EEF9
:1048D000278A3CD1E378002B39D1AE6CD6F8A440BE
:1048E00094ED010A05F03FFE013040F08F80AB6887
:1048F000D4ED017A93ED009A2378D5ED0EAA94EDCC
:104900000A5AC7EEA89AD4ED027A87EEA8AAD4ED87
:10491000097AA3BB286D436B984784ED050A84EDA3
:10492000070AAAEEE90A0023A3612362A9EE4A0A54
:104930000123237084ED039AC0EE297A84ED040AE2
:10494000AB6CC6ED037AD3ED037A38EE678AD5ED0A
:104950000D0AB0EE480A05F0C3FD30EE488AD5EDE9
:104960000D7A85ED0F8ABDEC068B85ED0E0AB1EE52
:10497000400AEB6D80EE270ABDE8F0411847D8F8F1
:104980000030D4ED035AD3ED066A94ED046A9FED2E
:10499000227AF8EE666A35EEC99A67EEE87A66EE34
:1049A000876AB0EE467AA7EE897AF7EE084AAAEE51
:1049B000A97AD5ED0F7A69EEA44AAAEE257A25EEFA
:1049C000685A67EEE47AF6EE004AE9EE057A94ED6D
:1049D000075AC4ED067A37EE055A84ED057A25EEBE
:1049E000245A84ED077AE6EE855AC4ED035AD4EDD5
:1049F000085AC4ED087A77EEA55A65EEA45AA6EED9
:104A0000A56AC6EE297A84ED046A99E7DFED037A98
:104A100096E700BF0000F03FBD378635000000007C
:104A2000300600202DE9F0472DED0A8B874B884F8B
:104A30001D683C6888B004F079FF0368D3F80480EF
:104A40002378013B042B00F2AF80DFE813F0050070
:104A50000B01A303A703A703A36B5B6D9847A36B8D
:104A60001B6D9847012840F09F80A36BDB6E984731
:104A7000E36984ED030AD3ED0C7AF5EEC07AF1EE2A
:104A800010FAB0EE408A4FF0000500F293805D61AD
:104A9000236AD3ED0C7AF5EEC07AF1EE10FA00F24B
:104AA000A1805D61636AD3ED0C7AF5EEC07AF1EE18
:104AB00010FA00F2B1805D61E569EB6C93B9D4ED59
:104AC000030A9FED640AB7EE001A06F001F8E369E5
:104AD000E864D3E90121D86CD1ED000AC36A92EDF4
:104AE000000A9847256AEB6C93B9D4ED030A9FED51
:104AF000590AB7EE001A05F0EBFF236AE864D3E920
:104B00000121D86CD1ED000AC36A92ED000A9847E2
:104B1000656AEB6C93B9D4ED030A9FED4E0AB7EECC
:104B2000001A05F0D5FF636AE864D3E90121D86C67
:104B3000D1ED000AC36A92ED000A9847E5692B6D32
:104B400043B99FED451AD4ED030A95ED050A05F02A
:104B5000BFFF2865256A2B6D43B99FED3F1AD4ED41
:104B6000030A95ED050A05F0B3FF2865656A2B6D0C
:104B700043B99FED391AD4ED030A95ED050A05F006
:104B8000A7FF2865E369A26B5B6C516B03F10C0016
:104B9000083308604B60936D9847D8F8003004F1F3
:104BA0001400984702232370207808B0BDEC0A8BCC
:104BB000BDE8F08777EEA77AB7EE007AF6EE006AE6
:104BC000B0EE470AA7EEA60A87EE000A05F0E5FA5E
:104BD000E36928EE008ADFED217A28EE278A83ED4B
:104BE000058A55E777EEA77AB7EE007AF6EE006A07
:104BF000B0EE470AA7EEA60A94ED038A87EE000AF4
:104C000005F0CBFA236A28EE008ADFED147A28EE4D
:104C1000278A83ED058A45E777EEA77AB7EE007A13
:104C2000F6EE006AB0EE470AA7EEA60A94ED038AF4
:104C300087EE000A05F0B1FA636A28EE008ADFED1C
:104C4000077A28EE278A83ED058A35E72C060020AF
:104C5000300600200000A0428FC2F53E83F9A23E3C
:104C6000BD37863504F11409D8F8183048469847FE
:104C700007EE900A2B68E669A061B8EE678A5FEDDF
:104C8000087A28EE278AD3ED017AF5EE407AF1EE24
:104C900010FAF6EE009A1CD096ED047A77EE877A39
:104CA00093ED007A67EEA97AA7EE887AD6ED077AB7
:104CB00083ED007AB1EE047AF4EEC77AF1EE10FAE1
:104CC00040F331827268D2ED007A77EEC77AC3ED95
:104CD000007AF06C93ED000A08B1836A98472A685D
:104CE000E369526886ED030A1A616B68266AD3EDA0
:104CF000017A93ED007AF5EE407AF1EE10FA1AD0CF
:104D0000D6ED046A77EEA67A67EEA97AA7EE887ADE
:104D1000D6ED077A83ED007AB1EE047AF4EEC77A25
:104D2000F1EE10FA40F30D827268D2ED007A77EE60
:104D3000C77AC3ED007AF06C93ED000A08B1836A7C
:104D400098476A68236A526886ED030A1A61AB685D
:104D5000666AD3ED017A93ED007AF5EE407AF1EED2
:104D600010FA1AD0D6ED046A77EEA67A67EEA97A21
:104D7000A7EE887AD6ED077A83ED007AB1EE047A51
:104D8000F4EEC77AF1EE10FA40F3E9817268D2EDE1
:104D9000007A77EEC77AC3ED007AF06C93ED000AE3
:104DA00008B1836A9847AA68636A526886ED030A65
:104DB0001A61E3695A68D3ED037A92ED000AB1EE05
:104DC000081A30EE670AF9EE080A05F04DFBE569AE
:104DD000286DAB68F0EE40AA002800F0CE81826A10
:104DE00093ED000A9047E36985ED060AD3ED047A56
:104DF00093ED06AA236A5A683AEE67AA92ED000A72
:104E0000D3ED037AB1EE081A30EE670AF9EE080A1C
:104E100005F02AFB256A286DAB68F0EE408A002871
:104E200000F0AE81826A93ED000A9047236A85ED17
:104E3000060AD3ED047A93ED068A636A5A6838EE5F
:104E4000678A92ED000AD3ED037AB1EE081A30EECC
:104E5000670AF9EE080A05F007FB656A286DAB687A
:104E6000B0EE40CA002800F08E81826A93ED000AFD
:104E70009047636A85ED060AD3ED047AD3ED06BA4E
:104E8000E369A26A5B6892ED050A7BEEE7BAD3EDAF
:104E9000007A01A930EE670A684605F073F904F05C
:104EA00045FD83689B6B9B6A9847B0EE40BA04F05F
:104EB0003DFD83689B6B5B6A9847E36A02A803A980
:104EC000B0EE409A93ED050A05F05CF99DED036A9A
:104ED000DDED027ADDED006ADDED015AE36987EE72
:104EE000864A65EE897A66EE844AB0EE6A5AB0EE7A
:104EF0004B7A97EE847AA4EEA85A26EE899AA7EE0A
:104F00000C5A28EEA80A83ED075AB0EE4A5AA4EECE
:104F1000885AAAEEAA0AA7EE2B5A2CEE497A83EDFC
:104F2000085AA5EEA87A236A2BEEC99A83ED077A70
:104F300027EE8C7A67EEAB7AA6EEA87AE6EE887A50
:104F4000A5EE889AC7EE065A87EE867A83ED089A10
:104F5000636AACEE0C0AC3ED075A83ED087A05F0DC
:104F6000FFF8E36993ED077A236AD3ED077A636A62
:104F7000B0EE409A27EEA70AD3ED077AA7EE070A0C
:104F8000A7EEA70A05F0ECF8C9EE008A28EE080A99
:104F9000AAEE0A0AABEEAB0A05F0E2F8E36993ED7C
:104FA000087A236AD3ED087A636AB0EE408A27EE66
:104FB000A70AD3ED087AA7EE070AA7EEA70A05F01D
:104FC000CFF8F7EE006AF4EEE68AF1EE10FAC8EEDA
:104FD000007AE06913D5236A90ED077A27EE287AE4
:104FE00080ED077A93ED077A27EE287A83ED077A2A
:104FF000636A93ED077A27EE287A83ED077AF4EE59
:10500000E67AF1EE10FA13D590ED087A236A27EECE
:10501000277A80ED087A93ED087A27EE277A83EDD8
:10502000087A636A93ED087A67EE277AC3ED087A07
:10503000B1EE080A1C3005F071FA206AB1EE080AD8
:105040001C3005F06BFA606AB1EE080A1C3005F0FE
:1050500065FA3B68DA7872B1D3E907A65D6A03F0B6
:1050600077FC012800F09280022800F0918010B9AE
:105070005046FEF771FD04F059FC3B68C568D869DD
:10508000B7EE000AFFF7ECFB3B681E6A9B6A07A9B4
:1050900093ED050A06A805F075F89DED060ADDED0D
:1050A000077A20EE000A304620EE290AA7EEA70A6A
:1050B000FFF7D6FBAB681B689847012828D13D68ED
:1050C000D5E9096305A993ED050A04A805F05AF886
:1050D000EB6A06A893ED050A07A905F053F89DEDC4
:1050E000040ADDED057A9DED077A20EE000A3046D0
:1050F00020EE290AA7EEA70ADDED067A67EEA77A69
:1051000067EEA97AE7EE077A20EE270AFFF7A8FBF9
:10511000D8F80030484698476378012BE36B3ED1BE
:10512000DB68984740E5F9EE046AF4EEE67AF1EEC2
:1051300010FA7FF5CEAD7268D2ED007A77EE877AFD
:10514000C5E5F9EE046AF4EEE67AF1EE10FA7FF5C1
:10515000F2AD7268D2ED007A77EE877AE9E5F9EE82
:10516000046AF4EEE67AF1EE10FA7FF516AE726894
:10517000D2ED007A77EE877A0DE693ED000A32E6FB
:1051800093ED000A52E693ED000A72E6304670E7AE
:1051900028466EE76278E36B012AC0E7E36B1B6980
:1051A000BFE700BF014B1868704700BF2C06002006
:1051B0002DE9F84F04F0BAFB0368AF4F1D68AF4EFE
:1051C00004F0B4FB0368D3F808A004F0AFFB436815
:1051D0005B685B689847AB68814601214820984727
:1051E000AB68386001214C209847AB6830600446BA
:1051F00001214C209847AB68206001214C20346885
:105200009847AB68606001214C2034689847A060E3
:105210003C6800272770AB68012160209847AB6885
:10522000E06180460121102098470121AB68C8F851
:1052300044002420D4F81C809847E369C8F854003F
:1052400004F11808C3F8408004F070FBC268E369F9
:10525000126852699A6504F069FBC268E3691268D2
:105260009269DA6504F062FB8368D4F81CB05B6B6A
:10527000DB689847CBF8040004F058FB8368D4F847
:105280001CB05B6B5B699847AB68CBF808000121E9
:10529000A820D4F81CB09847E369CBF84800D3F8AD
:1052A00048B0AB6801212C209847AB68CBF8A4002C
:1052B000012160209847AB682062834601211020BD
:1052C00098470121AB68CBF844002420D4F820B0E3
:1052D0009847236ACBF85400C3F8408004F026FBBB
:1052E000C268236A526852699A6504F01FFBC2685B
:1052F000236A52689269DA6504F018FB8368D4F86F
:1053000020B09B6BDB689847CBF8040004F00EFBE1
:105310008368D4F820B09B6B5B699847AB68CBF887
:1053200008000121A820D4F820B09847236ACBF8C0
:105330004800D3F848B0AB6801212C209847AB68EF
:10534000CBF8A400012160209847AB6860628346D7
:105350000121102098470121AB68CBF8440024209C
:10536000D4F824B09847636ACBF85400C3F840805F
:1053700004F0DCFAC268636A926852699A6504F0C4
:10538000D5FAC268636A92689269DA6504F0CEFA67
:105390008368D4F82480DB6BDB689847C8F8040086
:1053A00004F0C4FA8368D4F82480DB6B5B69984707
:1053B000AB68C8F808000121A820D4F824809847D9
:1053C000636AC8F84800D3F84880AB6801212C20F4
:1053D0009847AB68C8F8A400012128209847AB681B
:1053E000A0628046012124209847AB68C8F82400B9
:1053F000012128209847AB68E062804601212420E3
:105400009847AB68C8F82400012128209847AB686A
:1054100020638046012124209847C8F82400FFF724
:105420003BF8A36A164D586AB9F1020F07D0A9F1EB
:1054300004095FFA89F9B9F1010F00F20D8103F057
:105440003FFFA36A0F4F586A0F4B8361002105622B
:10545000C76103F01BFFE36A586A03F031FFE36A98
:10546000586A0A4B83610A4BC3610021056203F04D
:105470000DFF236B586A0DE0300600202C0600203B
:1054800000BA5B49EC51B83D00806D440080A244F5
:10549000CDCC4C3E03F014FF236B586A844B8361E0
:1054A0000562C761002103F0F1FE3368814A1A6189
:1054B000814ADA60814A9A61814A5A611A6881494F
:1054C000D16081491162814991628149D1618149EB
:1054D00011618149516181499161814951628149DB
:1054E00091608149D1628149116381495163814948
:1054F00091638149D1638149116481495164814932
:1055000091645A688049D1608049116280499162F2
:105510008049D1618049116180495161804991611F
:1055200080495162804991608049D162804911630C
:1055300080495163804991638049D16380491164F6
:1055400080495164804991649A688049D16080495A
:105550001162804991628049D1618049116180491D
:1055600051618049916180495162804991608049CF
:10557000D1628049116380495163804991638049B8
:10558000D163804911648049516480499164804AA3
:105590001A62804ADA61804A5A62804A9A62804A74
:1055A000DA62804A1A63804A5A63804A9A63804A60
:1055B000DA63804A1A64804A5A64804A9A640021F5
:1055C000DAF808307E48984704F0B0F94369E0699A
:1055D0005D68D4E90812EB691C321C311C30984715
:1055E000D5F818A004F0A2F983685B6BDB689847D4
:1055F000074604F09BF983689B6BDB689847236B35
:10560000804603F1140904F091F98368DB6BDB68D1
:1056100098474A46034641463846D047D4E90B12DC
:10562000A06A2B6A143214311430984733686364CB
:1056300004F07CF903685B68636304F077F98368BE
:10564000A36304F073F9C368E36304F06FF90369BB
:105650001B682364BDE8F88F03F032FEA36ADFF80D
:105660006881586ADFF86491C0F81890394605627D
:10567000C0F81C8003F00AFEE36A586A03F020FEBB
:10568000E36A586A3946C0F818900562C0F81C8071
:1056900003F0FCFD236B586A03F012FE236B586A7B
:1056A000484B83610562C0F81C803946FBE600BFA9
:1056B0000080894421300008113000084130000882
:1056C0003130000879370008814400082D42000875
:1056D000353200080532000815320008253200086E
:1056E00045320008F5310008C53100085130000886
:1056F0006130000871300008813000081131000865
:1057000089310008793300085137000869440008DE
:10571000054000089532000865320008753200081F
:1057200085320008A532000855320008D53100083E
:1057300091300008A1300008B1300008C1300008E5
:10574000393100089D3100088933000829370008E5
:1057500051440008D93D0008F5320008C532000860
:10576000D5320008E532000819330008B5320008C8
:10577000E5310008D1300008E1300008F1300008C0
:105780000131000861310008B13100089933000887
:10579000254A000899440008513A000839330008A6
:1057A00049330008313A0008193800082933000845
:1057B00001360008A1370008593300086933000892
:1057C000A933000800004844CDCCCC3D00002F4454
:1057D000024B1B6800221A70704700BF340600207D
:1057E0002DE9F84F2DED028B04F0A0F803685D68F9
:1057F00004F09CF8C66804F099F8D0F8088004F02A
:1058000095F8984BD0F81CB01C68FFF7CBFCD0F88B
:1058100000A0FFF7C7FCD0F80490FFF7C3FC237883
:1058200087680B2B27D8DFE813F00C002B00510002
:105830007B00A200C5000F0137019E01C1010202D9
:105840000C02D8F85430984733699847D8F850304C
:105850009847012807460ED1D8F858309847F36882
:1058600098472B6804F11000984700236370DAF81A
:105870000C3098472770BDEC028B2078BDE8F88F7C
:1058800004F11008AB6840469847DAF828309FEDDD
:10589000790A07469847F3EE047AB0EEC00AB4EEF0
:1058A000E70AF1EE10FA0BDD33689B6A98472B6824
:1058B000608040469847DAF80C30984702232370FE
:1058C00042F210739F42D6D90D23C9E004F11007AC
:1058D000AB6838469847D8F834309B6806469847F6
:1058E000DFED617ADAF8283030EE678AB2EE040A2A
:1058F000B0EEC88A28EE000A9847DFED637AB4EE6E
:10590000E78AF1EE10FA07D52B6838469847D9F8A0
:105910000C3098470323237042F210739E42D2E763
:1059200004F11008AB6840469847DBF8043007469E
:10593000984701280CBF9FED4F0A9FED4C0AD9F8FC
:1059400028309847F3EE047AB0EEC00AB4EEE70AC6
:10595000F1EE10FAB4DD73689B6A98472B68A0805B
:1059600040469847D9F80C3098470423A7E704F13C
:10597000100AAB6850469847D8F838309B680646FE
:105980009847B0EE408AB2EE040A28EE400AD9F8F1
:1059900028309847DFED3C7AB0EEC88AB4EEE78A4B
:1059A000F1EE10FAB8D52B6850469847FB68984737
:1059B0000523B0E704F11009AB6848469847B3687F
:1059C0005B68804698470128BB6A21D19FED290A70
:1059D0009847F3EE047AB4EEE70AF1EE10FA13DD1D
:1059E000B3689B6A9847B368E0809B6A9847002633
:1059F0002B682081E66048469847FB693046984707
:105A0000FB6898470723237044F6206398455AE7BC
:105A10009FED160A9847FBEE047AB4EEE70AF1EE22
:105A200010FAF1D5B3689B6A9847B368E0809B6A27
:105A3000984700262B682081E66048469847FB6916
:105A4000304698470623DEE77B6A984703287FF4B1
:105A500012AF2B6804F110009847FB6898470723A2
:105A6000237008E7340600200000B44200007042B2
:105A700000009CC1000070C200009C410000B43BCB
:105A80000000254300002F43CDCC4C3E00300E4695
:105A90000010C74500B8F14604F11009AB6848464C
:105AA0009847B3689B6A804698472389A0EB030A0E
:105AB000B3689B6A9847E36820810FFA8AFA5344D7
:105AC000E360B3685B6898470128BB6A17D11FED94
:105AD000190A98475FED1A7AB4EEE70AF1EE10FA68
